:020000040800F2
:10000000D004002045010008334C00084D130008BF
:10001000314C0008FF030008D54C00080000000028
:10002000000000000000000000000000374C000845
:100030000104000800000000354C0008394C00089D
:100040005F0100085F0100085F0100085F01000810
:100050005F0100085F0100085F0100085F01000800
:100060005F0100085F0100085F0100085F010008F0
:100070005F0100085F0100085F0100085F010008E0
:100080005F0100085F0100085F0100085F010008D0
:100090005F0100085F0100085F0100085F010008C0
:1000A0005F0100085F0100085F0100085F010008B0
:1000B0005F0100085F0100085F0100085F010008A0
:1000C0005F0100085F0100085F0100085F01000890
:1000D0005F0100085F0100085F0100085F01000880
:1000E0005F0100085F0100085F0100085F01000870
:1000F0005F0100085F0100085F0100085F01000860
:100100005F0100085F0100085F0100085F0100084F
:100110005F0100085F0100085F0100085F0100083F
:100120005F0100085F0100085F0100085F0100082F
:10013000DFF80CD000F042F90048004719530008DE
:10014000D00400200648804706480047FEE7FEE747
:10015000FEE7FEE7FEE7FEE7FEE7FEE7FEE7FEE777
:100160008D4C000831010008202A04DB203A21FAD6
:1001700002F00021704721FA02F3D040C2F12002C0
:10018000914008431946704740EA01039B0703D09A
:1001900009E008C9121F08C0042AFAD203E011F8C6
:1001A000013B00F8013B521EF9D27047D2B201E088
:1001B00000F8012B491EFBD270470022F6E710B56C
:1001C00013460A4604461946FFF7F0FF204610BDC5
:1001D0002DE9FE4F81EA030404F0004421F00041C0
:1001E00000944FF0000B23F0004350EA01045ED06E
:1001F00052EA03045BD0C3F30A54C1F30A552C44FA
:10020000A4F2F3340194A0FB0254C1F3130141F4AE
:100210008011C3F3130343F4801301FB024400FB7A
:10022000034E840A970A44EA815447EA8357A4FBA1
:10023000076802958D0A05FB07854FEA932C04FB9E
:100240000C542705029D4FEA065847EA1637B5EBCE
:1002500008056EEB070C870E920E47EA811742EAFB
:100260008312A7FB0201B6EB0B0164EB00042B0D1C
:1002700043EA0C335E1844EB1C50DA465146E7FB68
:100280000201C5F313044FEA0B3343EA14534FEA58
:100290000432019C43EA0603A4F10C040294009C7E
:1002A000CDE900B400F03BF803B0BDE8F08F0020CA
:1002B0000146F9E70EB540F2334102910021CDE944
:1002C00000110A460B4600F02AF803B000BDC1F346
:1002D0000A5210B5C1F3130140F2FF3341F480110B
:1002E0009A4201DA002010BD40F233439A42A2F252
:1002F000334203DC5242FFF737FF10BD904010BD80
:1003000010B5141E73F1000408DA401C41F100011D
:1003100092185B411A4301D120F0010010BD2DE974
:10032000F04D92469B4611B1B1FA81F202E0B0FA6B
:1003300080F22032904600F053F804460F4640EA1F
:100340000A0041EA0B0153465A46084313D01146AE
:1003500053EA010019D0C8F140025046FFF704FFEC
:1003600005460E4650465946424600F039F80843C5
:1003700005D0012004E020463946BDE8F08D00207C
:10038000054346EAE0762C4337430A986305E40ABE
:10039000A0EB08000022FD0A44EA47540A3002D5C7
:1003A00000200146E9E7010510196941DDE908452A
:1003B00000196941BDE8F04DA2E70000064C074D69
:1003C00006E0E06840F0010394E807009847103425
:1003D000AC42F6D3FFF7B0FE686D0008886D0008E8
:1003E000202A04DB203A00FA02F1002070479140F5
:1003F000C2F1200320FA03F3194390407047FEE74F
:100400007047704730B5B3F5804F05D06FF070413D
:1004100040F82210002030BD8C690B688D682343A2
:100420004C688989240144EA0524234343EA0141B5
:1004300050F82230014C23401943E9E70000F0CF87
:1004400010B50A6850F8223023F0010340F822303A
:100450008C68082C23D000234A682243CC681C43B4
:100460000B6922431A434B691A438B691A43CB69C0
:100470001A430B6A1A434B6A1A438B6A1A43CB6AB4
:100480001A430B6B1A434B6B09681A4350F821301F
:10049000044C23401A4340F82120002010BD402383
:1004A000DAE700008000F0FF30B5D1E9003443EA1C
:1004B00004138C688D89240244EA054423430C8A82
:1004C000094D00EB820005EB045423430C7D6D01C4
:1004D00005EB0464896923430B43416801F0404103
:1004E0000B434360002030BD0000F0FF70B50446B0
:1004F00000F056F90546601C02D004480078044418
:1005000000F04EF9401BA042FAD370BD100000204D
:1005100030B585B0002000900190029003901748FC
:100520000168002927D1012101601548416941F482
:10053000807141614069022400F48070049041F2AE
:100540000100CDE900040325694603950D4800F03C
:100550001FF84FF68070CDE90004694603950A48FC
:1005600000F016F84CF23370CDE9000469460395AB
:10057000064800F00DF805B030BD00000400002072
:10058000001002400020014000180140001401400A
:100590002DE9F84FDFF8C891002409F1040A0AF1A7
:1005A000040B23460F270BF1040ED1E00125A540D3
:1005B00006EA0502AA4276D1DFF8A8C14E68A6EB8A
:1005C0000C0866452BD00DDC032E34D005DC36B389
:1005D000012E19D0022E2FD11BE0112E16D0122E73
:1005E0002AD119E0B8F5881F19D006DCB8F5803F8C
:1005F00015D0B8F5801F1FD111E0B8F5001F0ED03F
:10060000B8F5041F18D10AE0CB6815E0CB681B1DB4
:1006100012E0CB6808330FE0CB680C330CE08B683A
:100620002BB1012B4FF0080303D0456104E00423F4
:1006300002E0056100E00023FF2A01D8064601E040
:1006400000F104064FEA840501D9A5F12005D6F88A
:10065000008007FA05FC28EA0C0803FA05F548EAC9
:100660000508C6F800804D68ED0070D53E4DAE69B6
:1006700046F00106AE61AD6924F0030605F0010500
:1006800000953A4D06EB050CDCF80850A607360F2E
:1006900007FA06F825EA0805DFF8D480404503D1BB
:1006A0004FF0000825E052E0DFF8C880404502D155
:1006B0004FF001081DE0DFF8C080404502D14FF047
:1006C000020816E0DFF8B480404502D14FF003087D
:1006D0000FE0DFF8AC80404502D14FF0040808E09D
:1006E000DFF8A080404502D14FF0050801E04FF04F
:1006F000060808FA06F848EA0508CCF808804D68AC
:10070000D9F80060ED034D4601D5164300E096434D
:100710002E604D68DAF80060AD03554601D51643EA
:1007200000E096432E604D68DBF80060ED025D4608
:1007300001D5164300E096432E604D68DEF8006058
:10074000AD02754601D5164300E096432E60641C49
:100750000A681646E2407FF429AFBDE8F88F000032
:100760000004014000001110001002400000014090
:1007700000080140000C014000100140001401403D
:1007800000180140001C0140C2680A4201D04161CA
:100790007047016170470AB1016170470904FBE7C6
:1007A00001488068704700001000002070B5040008
:1007B0001BD094F83D00002520B984F83C50204619
:1007C00000F056FA242084F83D002068016821F0EA
:1007D0000101016000F0A0FB4D4A6168914201D81F
:1007E0004C4900E04C49884201D2012070BD4B4980
:1007F0002368B0FBF1F15E6826F03F060E435E60B1
:100800006368934206D94FF4967359434FF47A7351
:10081000B1FBF3F12368491C1E6A26F03F06314301
:1008200019626168914210D84900401EB0FBF1F294
:10083000521CC2F30B02042A01D2042022E0B0FBB6
:10084000F1F0401CC0F30B001CE0A368F3B301EB14
:10085000C10202EB0116421EB2FBF6F2521C42F438
:100860008042120549D093B301EBC10202EB0111A2
:10087000401EB0FBF1F0401CC0F30B0040F4804080
:1008800040F400402168CA694CF6FF739A43104354
:10089000C861D4E90701084321680A6822F0C00250
:1008A00010430860D4E9030101432068826848F2DC
:1008B000FF339A4311438160D4E90501084321685D
:1008C000CA6822F0FF021043C86001E00EE016E0A3
:1008D0002068016841F0010101602564202084F84E
:1008E0003D00256384F83E50002070BD01EB4106B9
:1008F000421EB2FBF6F2521CB3E70120C2E701EB45
:100900004101401EB0FBF1F0401CC0F30B00B7E703
:10091000A086010080841E0000093D0040420F00B7
:100920002DE9FF4F83B09A46DDE9119793460446BF
:10093000DDF84080FFF734FF054694F83D0020289D
:100940006FD1192301227B492046009500F0FAFD62
:100950000028F5D194F83C00012862D0012084F8E9
:100960003C0020680168C90703D1016841F001011A
:1009700001602168086820F400600860222084F883
:100980003D00402084F83E0000262664C4F8248000
:10099000A4F82A90608D20856748E062CDE9007553
:1009A00053465A462046049900F0E8FC00287DD1C1
:1009B000208DDFF8888168B1012814D0022820D06A
:1009C0002068016841F480610160206841698069A4
:1009D0000090A0E02068416981690091016841F4BC
:1009E0000071016097E02068016821F48061016076
:1009F00072B62068416981690091016841F4007113
:100A00000CE02168086840F40060086072B6206855
:100A1000416981690091016821F48061016062B6D9
:100A200079E084E003284FD801280BD002283B4608
:100A30004FF000024146204600950ED000F082FDA6
:100A4000A0BB0FE02A463946204600F0FAFD68BBFD
:100A500020680069616A087054E000F073FD28BBEB
:100A600072B61AE02068016821F48061016072B6F4
:100A700020680069616A0870606A401C6062208DAD
:100A8000401E2085608D401E60853B460022414609
:100A90002046009500F056FD40B92068016841F4F9
:100AA0000071016020680069616A00E012E008706E
:100AB000606A401C6062218D491E2185618D491E3E
:100AC000618562B621681BE02A463946204600F05F
:100AD000B8FD18B1012007B0BDE8F08F20680069AB
:100AE000616A0870606A401C6062218D491E218520
:100AF000618D491E618521684A69D24352070AD433
:100B000009690170606A401C6062208D401E20856A
:100B1000608D401E6085208D002883D1202084F8C0
:100B20003D0084F83E6084F83C600020D3E702205A
:100B3000D1E70000020010000000FFFF04000100E8
:100B40002DE9FF4F83B09A46DDE91197934604469D
:100B5000DDF84080FFF724FE054694F83D0020288C
:100B60007FD11923012240492046009500F0EAFC7C
:100B7000002876D194F83C00012872D0012084F836
:100B80003C0020680168C90703D1016841F00101F8
:100B900001602068016821F400610160212084F86F
:100BA0003D00402084F83E0000262664C4F82480DE
:100BB000A4F82A90608D20852C48E062CDE900756C
:100BC00053465A462046049900F04CFC70B930E078
:100BD0002A463946204600F067FD58B1206C0428AB
:100BE00004D12068016841F400710160012007B060
:100BF000BDE8F08F606A216800780861606A401C77
:100C00006062218D491E89B22185628D521E6285E6
:100C100022685369DB435B070BD469B1007810612C
:100C2000606A401C6062208D401E2085608D401EE1
:100C30006085208D0028CBD12A463946204600F019
:100C40005BFC0028CAD154F83D0B016841F40071E7
:100C50000160202004F81E09E67766770020C6E7C9
:100C6000FFE70220C3E70000020010000000FFFFC2
:100C700010B586B0002100910191029103910068A6
:100C8000104988421BD1104CA06940F00800A061B7
:100C9000A069694600F0080004904FF4406000909D
:100CA00012200190032003900848FFF771FCE069CF
:100CB00040F48000E061E06900F48000049006B038
:100CC00010BD00000058004000100240000C014020
:100CD000024881680278114481607047100000204A
:100CE000074810B5016841F010010160032000F0D1
:100CF0006BF8002000F006F800F024F8002010BD8A
:100D00000020024070B50D4D04464FF47A712878EA
:100D1000B1FBF0F00A490968B1FBF0F000F002FB0A
:100D200048B9102C07D200222146501E00F02CF8A2
:100D300000206C6070BD012070BD0000100000201C
:100D40001C0000200E4808B5816941F00101816155
:100D5000816901F001010091C16941F08051C161D7
:100D6000C06900F080500090052000F02DF8054883
:100D7000416821F0E06141F00071416008BD000070
:100D80000010024000000140F0B40E4B1B680C46FE
:100D9000C3F30223C3F10705042D00D90425191D4F
:100DA000072901D2002300E0DB1E012606FA05F127
:100DB000491E214099409E40761E16403143F0BCAA
:100DC00003F089BF0CED00E0064900F00702086857
:100DD0004FF6FF03184040EA0220034A1043086020
:100DE000704700000CED00E00000FA052DE9F04727
:100DF0000F46050061D0434E306800F00700B8424E
:100E000009D2306820F0070038433060306800F0C5
:100E10000700B84251D128683B4C810712D54007E2
:100E200003D5606840F4E06060602878000703D56F
:100E3000606840F4605060606068A96820F0F0006D
:100E4000084360602878C00728D06868012810D05F
:100E50002168022810D0890700292EDA616821F064
:100E6000030101436160FFF79BFC804641F2883932
:100E70000DE021688903EFE78901EDE7FFF790FCBA
:100E8000A0EB0801494502D90320BDE8F08760685E
:100E9000696800F00C00B0EB810FEFD1306800F012
:100EA0000700B8420BD9306820F0070038433060A3
:100EB000306800F00700B84201D00120E5E728784B
:100EC000400705D56068E96820F4E0600843606089
:100ED0002878000706D56068296920F4605040EA48
:100EE000C100606000F028F86168084AC1F303118E
:100EF000515CC8400649086006480068FFF702FFD9
:100F00000020C2E70020024000100240506D00089F
:100F10001C000020140000200448054900684968AE
:100F2000044AC1F30221515CC84070471C000020F4
:100F300000100240606D000812A185B00FC98DE855
:100F40000F0014A0144A006804905168134801F07F
:100F50000C03042B10D0082B0ED1C1F38343C9031B
:100F60001DF803000AD5516804AAC1F34041515C41
:100F70000A4A5043B0FBF1F005B0704708494843B6
:100F8000FAE7000002030405060708090A0B0C0D26
:100F90000E0F1010010200000010024000127A0033
:100FA00000093D002DE9F84F040070D02078C04DB5
:100FB000C00749D06868C0F38100012807D068687D
:100FC000C0F38100022809D16868C00306D52868EB
:100FD000800339D560680028E7D035E06068B0F557
:100FE000803F0BD010B1B0F5A02F11D0286820F4AD
:100FF00080302860286820F4802002E0286840F4CF
:1010000080302860606890B1FFF7CAFB06460AE0AE
:10101000286840F480202860F0E700BFFFF7C0FB9D
:10102000801B642873D828688003F7D50CE0FFF78D
:10103000B7FB064605E000BFFFF7B2FB801B642844
:10104000F0D828688003F7D420789A4E80074FF0B4
:1010500001094FF0000839D5686810F00C0F07D06F
:101060006868C0F38100022809D16868C00306D40B
:101070002868800714D52069012808D110E020696C
:10108000B0B1C6F80090FFF78BFB074605E00AE118
:10109000FFF786FBC01B0228C4D828688007F7D555
:1010A0002868616920F0F80040EAC10028600DE07E
:1010B000C6F80080FFF774FB074604E0FFF770FBFB
:1010C000C01B022823D828688007F7D4207800079F
:1010D0002CD57948A169D9B1C0F80090FFF760FB21
:1010E000074604E0FFF75CFBC01B02280FD8686AC4
:1010F0008007F7D571484FF4FA510068B0FBF1F062
:10110000009000BF0098411E0091FAD20EE080E0EE
:10111000C0F80080FFF744FB074604E0FFF740FB00
:10112000C01B022875D8686A8007F7D4207840076A
:1011300060D5E8690027C00008D4E86940F0805015
:10114000E861E869012700F0805000905C48016880
:10115000C90513D40168834641F480710160FFF72B
:101160001FFB824606E000BFFFF71AFBA0EB0A0058
:1011700064284ED8DBF80000C005F5D5E0680128EA
:101180000AD008B1052813D0286A20F0010028628F
:10119000286A20F0040002E0286A40F0010028627A
:1011A000E06841F2883B98B1FFF7FAFA82460BE01B
:1011B000286A40F004002862EEE700BFFFF7F0FA6B
:1011C000A0EB0A0159455AD8286A8007F6D50CE0E9
:1011D000FFF7E6FA824605E0FFF7E2FAA0EB0A0124
:1011E00059454CD8286A8007F6D41FB1E86920F029
:1011F0008050E861E06988B36968C1F38101022920
:1012000044D00228C6F8608004D0FFF7C9FA04462B
:1012100038E034E0FFF7C4FA074604E0FFF7C0FA0D
:10122000C01B02282BD828688001F7D4206AB0F5AB
:10123000803F05D16868A16820F4003008436860E9
:10124000D4E908010843696821F47411084368600F
:10125000C6F86090FFF7A4FA044606E025E000BF58
:10126000FFF79EFA001B022809D828688001F7D5ED
:101270001BE000BFFFF794FA001B022802D90320ED
:10128000BDE8F88F28688001F4D40EE00128F7D07B
:101290006868226A00F48031914204D1616A00F4E6
:1012A0007010884201D00120EAE70020E8E7000042
:1012B0000010024000004242800442421C00002014
:1012C0000070004070B515460E46040003D094F837
:1012D000410010B107E0012070BD002084F84000FB
:1012E000204600F01DF804F108012068FFF7A8F877
:1012F0003146A2682068FFF7D7F8D4E901022946F1
:10130000236BFFF77FF82168A06851F8202042F096
:10131000010241F82020012084F84100002070BD26
:10132000FFF7F6B810B5401EB0F1807F01D3012061
:1013300010BD4FF0E02460610F21601703F0CBFC7B
:101340000020A06107202061002010BDFEE7016899
:101350004A69D24352050FD46FF480624A6100217A
:1013600040F8301F202242738173026942F0040268
:101370000261017301207047002070472DE9F84F8A
:101380000446006889460B9D01689846174641F45B
:10139000806101602068016841F4807101600095FE
:1013A0004FF0011A0022514620460A9B00F0CAF86D
:1013B000002853D1216809F0FE0008610AF1010BF1
:1013C0002B46594620460A9A00F0F0F8F0BB2068F8
:1013D0004169806900902A4620460A9900F064F924
:1013E00040B1206C042839D12068016841F40071B3
:1013F000016033E0FEB2B8F1010F09D02168380A6C
:1014000008612A4620460A9900F04EF90028E8D1E2
:10141000206806612A4620460A9900F045F900280E
:10142000DFD12068016841F48071016000950022DD
:10143000514620460A9B00F085F838B9216809F02A
:10144000FF0040F0010008612B4600E006E059462D
:1014500020460A9A00F0AAF8002800D00120BDE832
:10146000F88F00002DE9F843044600680D46DDE9D9
:10147000089701689846164641F4807101604B4612
:1014800000224FF001112046009700F05BF8E0B910
:10149000216805F0FE0008613B464A461549204692
:1014A00000F084F888B920684169806900903A4664
:1014B0004946204600F0F8F850B1206C042804D1C9
:1014C0002068016841F4007101600120BDE8F883E3
:1014D000F5B2B8F1010F09D02168300A08613A4627
:1014E0004946204600F0E0F80028E6D12068056172
:1014F0000020EBE70200010070B516460D460446D9
:101500000DE02046FFF723FF08B1012070BD681CE5
:1015100005D0FFF745F9801BA84207D835B12068F0
:101520004069C0434007ECD4002070BD002044F85F
:10153000300F20216173A073216941F020012161E6
:101540002073E2E72DE9F0471E4690460D4604461B
:10155000C1F30747DDF8209008E0701C06D0FFF7C4
:101560001FF9A0EB0900B0420FD876B12068012F17
:1015700018D0806925EA00000004000C14D0002176
:101580004145EAD00020BDE8F087002044F8300F44
:1015900020216173A073216941F020012161207332
:1015A0000120F0E74069E5E70121E9E72DE9F0478F
:1015B0009A4691460E46044600254FF02008C1F396
:1015C000074725E020684069C043400514D42068DF
:1015D000016841F40071016021686FF48060486126
:1015E000256384F83D8084F83E50206C40F0040070
:1015F000206484F83C501FE0B9F1FF3F08D0FFF7AA
:10160000CFF8A0EB0A0149450CD8B9F1000F09D079
:101610002068012F13D0806926EA00000004000C26
:101620000BD0CFE744F8305F84F80D80A5732069B4
:1016300040F02000206125730120BDE8F08740695B
:10164000EAE72DE9F041002590460E4604462027A2
:1016500017E04069C043C0060CD454F8301B6FF04B
:101660001000486144F810596777A577206A206216
:10167000257717E0FFF794F8A0EB0800B04208D8F0
:101680003EB120684169C9434906E2D40020BDE863
:10169000F08144F8305F6773A573206940F0200043
:1016A000206125730120F2E770B516460D46044609
:1016B0000DE02046FFF74BFE08B1012070BD681C0D
:1016C00005D0FFF76DF8801BA84207D835B1206818
:1016D0004069C0430006ECD4002070BD002044F8EF
:1016E000300F20216173A073216941F02001216135
:1016F0002073E2E72DE9F043174C8146002520884E
:1017000066884643A088A0F5D041043902D1A0796B
:10171000012807D00021084603F01AF803F092F9D7
:101720000E4814E00020A0712A2767814FF02B0893
:10173000A4F80C80014603F00BF80120A071A4F876
:101740000A80A781EAE700BFA0F800906D1CB542AF
:10175000FAD3BDE8F0830000200000200008006CF0
:101760002DE9F04F4A492A242B25898845F2105A41
:101770004FF4305B4FF4285E4FF448764FF0F00C96
:1017800049F241394FF4A07345F210374FF4F0722B
:1017900080B13F484FF00108494580F8068003803A
:1017A000A0F802C001D0B9423ED12C260681448166
:1017B000858157E036484FF00008494580F806809B
:1017C000A0F800C0438006D0A1F5D04CBCF1040CB9
:1017D00001D0B9420CD12C2606814481A1F5D04418
:1017E0008581043C01D0B94244D10380428041E06C
:1017F000514507D1A0F808B0A0F80AE04FF42C51E9
:1018000081810EE0A1F5C853633B06D022210181FE
:1018100020214181212181812CE02C2101814581E0
:1018200084810280468025E0A1F5D04CBCF1040CF7
:1018300009D051450BD1A0F808B0A0F80AE04FF448
:101840002C54848121E02C260681458109E0A1F5F4
:10185000C85CBCF1630C12D0222404812124448191
:1018600020248481A1F5D044043C01D0B94201D1A7
:1018700002804380BDE8F04F002002F09DBE4FF093
:101880002C0CA0F808C04481858106804280E9E7DD
:10189000200000202DE9F74FDFF814818B464246E7
:1018A000B8F80450CCB20B0ADFF808A19189060AF7
:1018B0005289A5F5134C0AF10209C7B2BCF1410CDB
:1018C0001BD0A5F5A04CBCF5447C16D0A5F5A04CCA
:1018D000BCF5A26C1ED04746A5F5C85CBE793F8812
:1018E0003F1A7F1EBCF1630C27D0A5F5D04CBCF18C
:1018F000040C38D0012E47D047E0AAF80020A9F800
:101900000060A9F80070AAF80010A9F80030A9F842
:10191000004043E0AAF80020A9F80060521CAAF891
:101920000020A9F80070AAF80010A9F80030491C9E
:10193000AAF80010A9F8004030E006B9B8B2AAF839
:101940000020060A4A46A9F80060C0B2A9F80000C3
:10195000A9F80060A9F80000AAF80010A9F8003062
:10196000A9F800400DE0012E00D1B8B2AAF800207D
:10197000060A4A46A9F80060C0B2A9F80000AAF811
:1019800000101380148009E0B8B20146104603F03D
:1019900063F8B8F80C00594603F05EF8B8F8081080
:1019A000AAF800100298A9F80000BDE8FE8F000018
:1019B00020000020FE07006C2DE9F05F002002F0FF
:1019C000D1FDFE4AFE4F0025BC1C29262321908014
:1019D0004FF00F0B4FF001094FF0050AFF2806D317
:1019E000A0F57F43FF3B02D0B0F5134F68D1D32061
:1019F0003880208820882088908083B24FF6FF703E
:101A0000B4F800C000EA032343EA0C03A3F5134C27
:101A10009380BCF1410C53D0BF233B8023882388A3
:101A20002388238893809BB2B4F800C000EA032384
:101A300043EA0C03A3F5D04C9380BCF1040C3FD0D7
:101A4000D4233B8023882388238893809BB2B4F8D7
:101A500000C000EA032343EA0C03A3F5A04C9380E3
:101A6000BCF5447C2CD04FF45A433B8023884FF480
:101A70005B433B80238893809BB24FF45C4C00EA2D
:101A80000323A7F800C0B4F800C043EA0C03938016
:101A9000B3F5004F7DD0A3F5A04CBCF5A26C0FD0E0
:101AA000A1233B8023889380238893809BB200EA04
:101AB000032023881843A0F5AE439080613B4ED0AD
:101AC0009288ED20A2F513434FF0C1084FF0B10CFE
:101AD000413B7DD0A2F5D043043B7AD0A2F5A6438A
:101AE000103B77D0A2F5AA40103874D0A2F513406D
:101AF0004FF48078253801F03585A2F51340283859
:101B000001F00086A2F51340203801F0BC86A2F552
:101B10001340313801F06087A2F5A840083802F080
:101B20003580A2F5A850053802F0CF80A2F53540E7
:101B3000053802F0DD81A2F54540053802F0D78274
:101B4000A2F58A40313802F09E83A2F58A403538EA
:101B500002F05484A2F5C850633803D07BE041F60C
:101B600063109080E22038802180022020800420B1
:101B700020800120FEF7BAFCE0203880C846A4F897
:101B800000900A20FEF7B2FCE02038804FF00309F5
:101B900000E06EE0A4F800900C20FEF7A7FCA7F888
:101BA00000800A20FEF7A2FCE6203880A4F800900E
:101BB000FF2020802080B0213980202121802580B5
:101BC000A4F8009040F21F312180A4F8008003E0C7
:101BD000FEE3FEE3FEE34FE040F2DF1121802580CB
:101BE000B42139800421218040F21F4121802580C9
:101BF000D22121802580258025802580B62139802D
:101C0000022121804FF4037121802580222121802F
:101C10000921218025802580F0213980A4F80090B9
:101C20003E80D02139802580BE213980A4F800A0D3
:101C3000FE212180A4F8008020802580B8203880F3
:101C4000A4F800B0A4F80080BA203880A4F800807E
:101C5000642002F093FC0020FFF782FD0122114670
:101C60005848FEF798FDBDE8F05F4FF6FF70FFF7AC
:101C700041BD45F2105090804FF4704355211846F5
:101C800002F0EAFE4FF20104AA21204602F0E4FE2F
:101C9000651C5221284602F0DFFEA61C08213046B2
:101CA00002F0DAFE4FF204080121404602F0D4FEB1
:101CB0000D214FF4304002F0CFFE0D214BF2010018
:101CC00002F0CAFE0D214BF2020002F0C5FE4FF4F5
:101CD00036493421484602F0BFFE34214BF2016000
:101CE00002F0BAFE34214BF2026002F0B5FE4FF46E
:101CF000314A0D21504602F0AFFE4BF2011B0D217F
:101D0000584602F0A9FE0D214BF2021002F0A4FE8B
:101D100034214FF4374002F09FFE34214BF2017022
:101D200002F09AFE34214BF2027002F095FE00217F
:101D30004FF4324002F090FE00214BF2012002F0FD
:101D40008BFE00214BF2022002F086FE24214FF48C
:101D5000384002F081FE24214BF6010002F07CFEA7
:101D600024214BF6020002F077FE01214FF43F40A0
:101D700002F072FE0F214FF4334002F06DFE0F218E
:101D80004BF2013002F068FE0F214BF2023002F0FC
:101D900063FE34214FF4394002F05EFE34214BF6ED
:101DA000011002F059FE34214BF6021002F054FEED
:101DB00008214FF4354002F04FFE05E020000020DE
:101DC000FE07006C000C014008214BF2015002F0AC
:101DD00043FE08214BF2025002F03EFE03214FF475
:101DE000424002F039FE24214FF43A4002F034FE22
:101DF00024214BF6012002F02FFE24214BF6022075
:101E000002F02AFE00214FF43C4002F025FE78212A
:101E10004BF6014002F020FE00214BF6024002F09A
:101E20001BFE00214FF43D4002F016FE78214BF6D8
:101E3000015002F011FE00214BF6025002F00CFEA0
:101E400000214FF43E4002F007FE64214BF6016092
:101E500002F002FE00214FF4514002F0FDFD33215B
:101E60004DF2011002F0F8FD00214DF2021002F0D7
:101E7000F3FD34214DF2031002F0EEFD00214DF28E
:101E8000041002F0E9FD3A214DF2051002F0E4FDE4
:101E900000214DF2061002F0DFFD4A214DF207103D
:101EA00002F0DAFD00214DF2081002F0D5FD5C21B0
:101EB0004DF2091002F0D0FD00214DF20A1002F09F
:101EC000CBFD81214DF20B1002F0C6FD00214DF239
:101ED0000C1002F0C1FDA6214DF20D1002F0BCFD68
:101EE00000214DF20E1002F0B7FDE5214DF20F106A
:101EF00002F0B2FD01214DF2101002F0ADFD1321F0
:101F00004DF2111002F0A8FD01214DF2121002F065
:101F1000A3FD54214DF2131002F09EFD01214DF25C
:101F2000141002F099FD82214DF2151002F094FD7B
:101F300001214DF2161002F08FFDCA214DF217104B
:101F400002F08AFD02214DF2181002F085FD0021F9
:101F50004DF2191002F080FD02214DF21A1002F02C
:101F60007BFD01214DF21B1002F076FD02214DF2A6
:101F70001C1002F071FD34214DF21D1002F06CFDB9
:101F800002214DF21E1002F067FD67214DF21F1075
:101F900002F062FD02214DF2201002F05DFD84216D
:101FA0004DF2211002F058FD02214DF2221002F0F4
:101FB00053FDA4214DF2231002F04EFD02214DF2FB
:101FC000241002F049FDB7214DF2251002F044FD26
:101FD00002214DF2261002F03FFDCF214DF22710D5
:101FE00002F03AFD02214DF2281002F035FDDE210B
:101FF0004DF2291002F030FD02214DF22A1002F0BC
:102000002BFDF2214DF22B1002F026FD02214DF2A4
:102010002C1002F021FDFE214DF22D1002F01CFDCE
:1020200003214DF22E1002F017FD10214DF22F105A
:1020300002F012FD03214DF2301002F00DFD3321AC
:102040004DF2311002F008FD03214DF2321002F082
:1020500003FD6D214DF2331002F0FEFC00214FF420
:10206000524002F0F9FC33214DF2012002F0F4FC61
:1020700000214DF2022002F0EFFC34214DF203204A
:1020800002F0EAFC00214DF2042002F0E5FC3A21C6
:102090004DF2052002F0E0FC00214DF2062002F096
:1020A000DBFC4A214DF2072002F0D6FC00214DF264
:1020B000082002F0D1FC5C214DF2092002F0CCFC9A
:1020C00000214DF20A2002F0C7FC81214DF20B20C5
:1020D00002F0C2FC00214DF20C2002F0BDFCA62152
:1020E0004DF20D2002F0B8FC00214DF20E2002F05E
:1020F000B3FCE5214DF20F2002F0AEFC01214DF2C0
:10210000102002F0A9FC13214DF2112002F0A4FCD2
:1021100001214DF2122002F09FFC54214DF21320B8
:1021200002F09AFC01214DF2142002F095FC82216C
:102130004DF2152002F090FC01214DF2162002F024
:102140008BFCCA214DF2172002F086FC02214DF2D1
:10215000182002F081FC00214DF2192002F07CFCD5
:1021600002214DF21A2002F077FC01214DF21B20D2
:1021700002F072FC02214DF21C2002F06DFC3421B1
:102180004DF21D2002F068FC02214DF21E2002F0EB
:1021900063FC67214DF21F2002F05EFC02214DF22C
:1021A000202002F059FC84214DF2212002F054FC41
:1021B00002214DF2222002F04FFCA4214DF22320F7
:1021C00002F04AFC02214DF2242002F045FCB72126
:1021D0004DF2252002F040FC02214DF2262002F0B3
:1021E0003BFCCF214DF2272002F036FC02214DF2BC
:1021F000282002F031FCDE214DF2292002F02CFCD7
:1022000002214DF22A2002F027FCF2214DF22B2070
:1022100002F022FC02214DF22C2002F01DFCFE21D6
:102220004DF22D2002F018FC03214DF22E2002F079
:1022300013FC10214DF22F2002F00EFC03214DF271
:10224000302002F009FC33214DF2312002F004FC71
:1022500003214DF2322002F0FFFB6D214DF23320BD
:1022600002F0FAFB00214FF4534002F0F5FB33215A
:102270004DF2013002F0F0FB00214DF2023002F08D
:10228000EBFB34214DF2033002F0E6FB00214DF26E
:10229000043002F0E1FB3A214DF2053002F0DCFBA4
:1022A00000214DF2063002F0D7FB4A214DF20730F3
:1022B00002F0D2FB00214DF2083002F0CDFB5C2190
:1022C0004DF2093002F0C8FB00214DF20A3002F055
:1022D000C3FB81214DF20B3002F0BEFB00214DF219
:1022E0000C3002F0B9FBA6214DF20D3002F0B4FB28
:1022F00000214DF20E3002F0AFFBE5214DF20F3020
:1023000002F0AAFB01214DF2103002F0A5FB1321CF
:102310004DF2113002F0A0FB01214DF2123002F01B
:102320009BFB54214DF2133002F096FB01214DF23C
:10233000143002F091FB82214DF2153002F08CFB3B
:1023400001214DF2163002F087FBCA214DF2173001
:1023500002F082FB02214DF2183002F07DFB0021D9
:102360004DF2193002F078FB02214DF21A3002F0E2
:1023700073FB01214DF21B3002F06EFB02214DF286
:102380001C3002F069FB34214DF21D3002F064FB79
:1023900002214DF21E3002F05FFB67214DF21F302B
:1023A00002F05AFB02214DF2203002F055FB84214D
:1023B0004DF2213002F050FB02214DF2223002F0AA
:1023C0004BFBA4214DF2233002F046FB022102E038
:1023D000D7E3FDE3FDE34DF2243002F03DFBB721EE
:1023E0004DF2253002F038FB02214DF2263002F08A
:1023F00033FBCF214DF2273002F02EFB02214DF2AC
:10240000283002F029FBDE214DF2293002F024FBB6
:1024100002214DF22A3002F01FFBF2214DF22B3047
:1024200002F01AFB02214DF22C3002F015FBFE21C6
:102430004DF22D3002F010FB03214DF22E3002F050
:102440000BFB10214DF22F3002F006FB03214DF261
:10245000303002F001FB33214DF2313002F0FCFA52
:1024600003214DF2323002F0F7FA6D214DF2333094
:1024700002F0F2FA00214FF4544002F0EDFA332159
:102480004DF2014002F0E8FA00214DF2024002F064
:10249000E3FA34214DF2034002F0DEFA00214DF25E
:1024A000044002F0D9FA3A214DF2054002F0D4FA84
:1024B00000214DF2064002F0CFFA4A214DF20740CA
:1024C00002F0CAFA00214DF2084002F0C5FA5C2180
:1024D0004DF2094002F0C0FA00214DF20A4002F02C
:1024E000BBFA81214DF20B4002F0B6FA00214DF209
:1024F0000C4002F0B1FAA6214DF20D4002F0ACFA08
:1025000000214DF20E4002F0A7FAE5214DF20F40F6
:1025100002F0A2FA01214DF2104002F09DFA1321BF
:102520004DF2114002F098FA01214DF2124002F0F2
:1025300093FA54214DF2134002F08EFA01214DF22C
:10254000144002F089FA82214DF2154002F084FA1B
:1025500001214DF2164002F07FFACA214DF21740D8
:1025600002F07AFA02214DF2184002F075FA0021C9
:102570004DF2194002F070FA02214DF21A4002F0B9
:102580006BFA01214DF21B4002F066FA02214DF276
:102590001C4002F061FA34214DF21D4002F05CFA59
:1025A00002214DF21E4002F057FA67214DF21F4002
:1025B00002F052FA02214DF2204002F04DFA84213D
:1025C0004DF2214002F048FA02214DF2224002F081
:1025D00043FAA4214DF2234002F03EFA02214DF2CB
:1025E000244002F039FAB7214DF2254002F034FAC6
:1025F00002214DF2264002F02FFACF214DF2274062
:1026000002F02AFA02214DF2284002F025FADE21DA
:102610004DF2294002F020FA02214DF22A4002F048
:102620001BFAF2214DF22B4002F016FA02214DF274
:102630002C4002F011FAFE214DF22D4002F00CFA6E
:1026400003214DF22E4002F007FA10214DF22F40E7
:1026500002F002FA03214DF2304002F0FDF933217D
:102660004DF2314002F0F8F903214DF2324002F010
:10267000F3F96D214DF2334002F0EEF900214FF4F1
:10268000554002F0E9F933214DF2015002F0E4F92E
:1026900000214DF2025002F0DFF934214DF20350D7
:1026A00002F0DAF900214DF2045002F0D5F93A2196
:1026B0004DF2055002F0D0F900214DF2065002F023
:1026C000CBF94A214DF2075002F0C6F900214DF234
:1026D000085002F0C1F95C214DF2095002F0BCF93A
:1026E00000214DF20A5002F0B7F981214DF20B5052
:1026F00002F0B2F900214DF20C5002F0ADF9A62122
:102700004DF20D5002F0A8F900214DF20E5002F0EA
:10271000A3F9E5214DF20F5002F09EF901214DF28F
:10272000105002F099F913214DF2115002F094F972
:1027300001214DF2125002F08FF954214DF2135045
:1027400002F08AF901214DF2145002F085F982213C
:102750004DF2155002F080F901214DF2165002F0B1
:102760007BF9CA214DF2175002F076F902214DF2A1
:10277000185002F071F900214DF2195002F06CF975
:1027800002214DF21A5002F067F901214DF21B505F
:1027900002F062F902214DF21C5002F05DF9342181
:1027A0004DF21D5002F058F902214DF21E5002F078
:1027B00053F967214DF21F5002F04EF902214DF2FC
:1027C000205002F049F984214DF2215002F044F9E1
:1027D00002214DF2225002F03FF9A4214DF2235084
:1027E00002F03AF902214DF2245002F035F9B721F6
:1027F0004DF2255002F030F902214DF2265002F040
:102800002BF9CF214DF2275002F026F902214DF28B
:10281000285002F021F9DE214DF2295002F01CF976
:1028200002214DF22A5002F017F9F2214DF22B50FD
:1028300002F012F902214DF22C5002F00DF9FE21A6
:102840004DF22D5002F008F903214DF22E5002F006
:1028500003F910214DF22F5002F0FEF803214DF242
:10286000305002F0F9F833214DF2315002F0F4F813
:1028700003214DF2325002F0EFF86D214DF233504A
:1028800002F0EAF800214FF4564002F0E5F8332157
:102890004DF2016002F0E0F800214DF2026002F01A
:1028A000DBF834214DF2036002F0D6F800214DF23E
:1028B000046002F0D1F83A214DF2056002F0CCF844
:1028C00000214DF2066002F0C7F84A214DF2076080
:1028D00002F0C2F800214DF2086002F0BDF85C2160
:1028E0004DF2096002F0B8F800214DF20A6002F0E2
:1028F000B3F881214DF20B6002F0AEF800214DF2E9
:102900000C6002F0A9F8A6214DF20D6002F0A4F8C7
:1029100000214DF20E6002F09FF8E5214DF20F60AC
:1029200002F09AF801214DF2106002F095F813219F
:102930004DF2116002F090F801214DF2126002F0A8
:102940008BF854214DF2136002F086F801214DF20C
:10295000146002F081F882214DF2156002F07CF8DB
:1029600001214DF2166002F077F8CA214DF217608E
:1029700002F072F802214DF2186002F06DF80021A9
:102980004DF2196002F068F802214DF21A6002F06F
:1029900063F801214DF21B6002F05EF802214DF256
:1029A0001C6002F059F834214DF21D6002F054F819
:1029B00002214DF21E6002F04FF867214DF21F60B8
:1029C00002F04AF802214DF2206002F045F884211D
:1029D0004DF2216002F040F802214DF2226002F037
:1029E0003BF8A4214DF2236002F036F802214DF2AB
:1029F000246002F031F8B7214DF2256002F02CF886
:102A000002214DF2266002F027F8CF214DF2276017
:102A100002F022F802214DF2286002F01DF8DE21BA
:102A20004DF2296002F018F802214DF22A6002F0FE
:102A300013F8F2214DF22B6002F00EF802214DF254
:102A40002C6002F009F8FE214DF22D6002F004F82E
:102A500003214DF22E6001F0FFFF10214DF22F6097
:102A600001F0FAFF03214DF2306001F0F5FF332150
:102A70004DF2316001F0F0FF03214DF2326001F0C0
:102A8000EBFF6D214DF2336001F0E6FF5521184652
:102A900001F0E2FFAA21204601F0DEFF5221284684
:102AA00001F0DAFF0821304601F0D6FF0021404650
:102AB00001F0D2FFCC21504601F0CEFF0021584654
:102AC00001F0CAFF0521484601F0C6FF70214FF40E
:102AD000374001F0C1FF70214BF2017001F0BCFFE3
:102AE00001214FF4384001F0B7FF03214BF60100FC
:102AF00001F0B2FF03214BF6020001F0ADFF03210C
:102B00004BF6030001F0A8FF02214FF43C4001F016
:102B1000A3FF00214BF6014001F09EFF00214BF680
:102B2000024001F099FFD0214FF4494001F094FF99
:102B300002214CF6011001F08FFF50214CF60210DB
:102B400001F08AFF50214CF6031001F085FF50215F
:102B50004CF6041001F080FF00214FF4545001F0B6
:102B60007BFF55214FF4685001F076FF4FF48850F9
:102B700038800120FDF7BAFC4FF424503880FFF76D
:102B80006AB8CF21398025804146A4F800803022E0
:102B90002280388064202080032020801220208022
:102BA00081202080E8203880852020804FF0100E82
:102BB000A4F800E07A202080CB20388039202080C3
:102BC0002C2020802580342020800220208001E0DD
:102BD0007FE0E4E0F720388020202080EA20388061
:102BE00025802580C02038801B20208039804946E0
:102BF000A4F80090C520388022802280C720388029
:102C0000B720208036203880482020803A20388025
:102C100055202080A7F800C025801A202080B620EB
:102C200038804FF00A0CA4F800C0A2202080F220C7
:102C300038802580262038802180E0203880584642
:102C4000A4F800B02A232380282222800822228090
:102C50004FF00E08A4F80080228054222280A9227E
:102C6000228043222280A4F800C020802580258075
:102C700025802580E1223A80258015222280172296
:102C80002280072222804FF01108A4F8008006223B
:102C900022804FF02B0CA4F800C0562222803C2248
:102CA0002280A4F800A0A4F800E020803F22228027
:102CB00022802080A7F800C02580258021802280E6
:102CC0003B80258025802580EF202080A7F800808C
:102CD00060E04FF01108A7F800801420FDF706FC13
:102CE000D020388007202080422020801D20208096
:102CF000D120388025801A20208009202080D220F1
:102D000038804846A4F8009022212180C0213980D3
:102D1000102121803B212180258002212180A4F8DF
:102D20000080C5223A8003222280C8223A80258072
:102D30002522228021232380A4F800A025800A23B5
:102D400023806523238022807722228050222280C4
:102D5000A4F800B02580F8223A802080FE223A8034
:102D60002580218020213980362139800821218049
:102D70003A213980552121802B21398025802580D9
:102D800020803F2121802A213980258025802080B4
:102D9000DF2020807820FDF7A9FB3E80EFE6388019
:102DA000A4F80090FE202080EE203880DE202080D5
:102DB00021202080F120388001202080DF203880F1
:102DC00010202080C42038808F202080C6203880AA
:102DD0002580E220208020802080BF203880AA200B
:102DE0002080B02038800D20208025802080258004
:102DF00011202080258019202080258021202080FE
:102E000025802D20208025803D20208025805D206C
:102E10002080258020802580A7F800C08020208089
:102E200025808B2020802580962020802580B22040
:102E30003880258025800220208025800320208066
:102E40002580B32038802580258025802580258019
:102E5000258025802580258025802580258025804A
:102E6000258025802580258025802580258025803A
:102E7000258025802580B42038808B2020802580E7
:102E8000962020802580A12020802580B5203880B4
:102E9000022020802580032020802580042020809F
:102EA0002580B620388025802580B7203880258071
:102EB00025803F20208025805E2020802580642082
:102EC000208025808C2020802580AC2020802580BB
:102ED000DC2020802580702020802580902020808C
:102EE0002580EB2020802580DC2020802580B820D4
:102EF0003880258025802580258025802580258097
:102F00002580BA20388024232380258025802580B1
:102F1000A7F800804FF02008A4F8008025805420F6
:102F200020802580FF2020802580C22038800A2034
:102F300020802580042020802580C32038803C20EC
:102F4000208025803A2020802580392020802580FF
:102F50003720208025803C2020802580362222803A
:102F600025803220208025802F20208025802C2045
:102F70002080258026802580262020802580238093
:102F8000258023802580218025803C232380258067
:102F9000228025803223238025802F2323802580B3
:102FA0002C232380258026802580208025802420B6
:102FB0002080258020802580218025804FF0C40B33
:102FC000BE463846A7F800B062232380258005233B
:102FD00023802580842323802580F023238025805F
:102FE000182323802580A423238025801823238071
:102FF00025804FF0500AA4F800A025800C232380E0
:1030000025801723238025809523238025804FF05A
:10301000F30CA4F800C02580E62323802580C52377
:103020000380322323802580442323802580652349
:103030002380258076232380258088232380258074
:10304000C6230380A4F800802580172323802580D1
:10305000A4F8009025804FF0C708A0F800802580D4
:10306000258025802580C823038025802580258014
:103070002580C92303802580258025802580258003
:103080002580258025802580258025802580258018
:10309000258025802580E023038016272780258032
:1030A0001C272780258021272780258022802580B6
:1030B0004627278025805227278025806427278060
:1030C00025807A27278025808B27278025809927B0
:1030D00027802580A82727802580B927278025805D
:1030E000A4F800B02580CA2727802580D227278012
:1030F0002580D9272780258023802580A4F800C03B
:103100002580E12707801627278025801C27278018
:103110002580222727802580228025804522228025
:1031200025805222228025806422228025807A22D6
:10313000228025808B222280258099222280258052
:10314000A82222802580B92222802580A4F800B000
:103150002580CA2222802580D22222802580D82262
:103160002280258023802580A4F800C02580E222CB
:1031700002800520208025800B20208025801B20B8
:1031800020802580342020802580442020802580B8
:103190004F22228025806122228025807922228070
:1031A0002580882323802580972222802580A622BF
:1031B00022802580B72222802580C222228025807D
:1031C000A4F800802580D12222802580D62222806A
:1031D0002580DD2222802580A4F800C025804FF0C4
:1031E000E3087746AEF800804FF00508A4F80080A9
:1031F00025804FF00A08A4F8008025804FF01C08B5
:10320000A4F8008025804FF03308A4F800802580C2
:1032100020802580A4F800A025804FF06208A4F843
:10322000008025804FF07808A4F800802580238056
:1032300025804FF09708A4F8008025804FF0A6085D
:10324000A4F8008025804FF0B708A4F800802580FE
:103250004FF0C208A4F8008025804FF0C708A4F8FA
:10326000008025804FF0D108A4F8008025804FF021
:10327000D508A4F80080258022802580A4F800C00D
:1032800025804FF0E408A7F80080A4F8009025807E
:103290004FF00108A4F8008025804FF00208A4F840
:1032A000008025804FF02A08A4F8008025804FF088
:1032B0003C08A4F8008025804FF04B08A4F800805B
:1032C00025804FF05D08A4F8008025804FF0740839
:1032D000A4F8008025804FF08408A4F800802580A1
:1032E0004FF09308A4F8008025804FF0A208A4F8BE
:1032F000008025804FF0B308A4F8008025804FF0AF
:10330000BE08A4F800802580A4F800B025804FF006
:10331000CD08A4F8008025804FF0D308A4F80080E1
:10332000258022802580A4F800C02580E5223A80EF
:103330002580258025802580022222802580B14697
:10334000268025803C22228025804B2222802580D9
:103350005D22228025807422228025808422228082
:103360002580932222802580A22222802580B322DC
:1033700022802580BE2222802580C42222802580B2
:10338000CD2222802580D32222802580DC2222802B
:103390002580A4F800C02580E6223A8011222280F0
:1033A0002580342222802580562222802580762284
:1033B000228025804FF0770AA4F800A02580662699
:1033C00026802580238025809922228025804FF029
:1033D000BB0BA4F800B025802280258026802580A4
:1033E0004FF05508A4F800802580A4F800802580BF
:1033F0004FF04508A4F8008025804FF04308A4F85A
:1034000000802580208025804FF0E708A7F8008005
:103410004FF03208A4F8008025804FF05508A4F83A
:10342000008025804FF07608A4F800802580268053
:1034300025804FF06708A4F800802580A4F800805C
:1034400025804FF0870EA4F800E02580228025809B
:10345000A4F800B0258022802580A4F800A0258053
:10346000208025804FF05608A4F800802580218018
:103470002580332121802580452121802580E82158
:1034800039802580258022802580A4F800E02580D1
:1034900023802580A4F800A0258026802580238015
:1034A0002580AA2121802580A4F800B025802280D3
:1034B0002580268025805522228025802280258017
:1034C000208025802080258022802580E92038806A
:1034D00021802580258025803D802180CF20388057
:1034E00025802580258025802580258025802580B4
:1034F00025802580258025802580258025802580A4
:103500002580F0203880258050202080258025804F
:103510002580A7F800C02580F9203880062020806B
:1035200010202080A4F8009025803A203880552073
:103530002080112038806420FCF7D8FFA7F8009085
:1035400035203880258051203880FF20208053206E
:1035500038802C2020805521398082212180FFF75E
:103560000DBB00BF47F6F001E52001F075FA4146BA
:10357000012001F071FA4FF4E061022001F06CFAD1
:1035800041F23001032001F067FA0021042001F02C
:1035900063FA40F20221082001F05EFA00210920BE
:1035A00001F05AFA00210A2001F056FA00210C20FD
:1035B00001F052FA00210D2001F04EFA00210F20F7
:1035C00001F04AFA0021102001F046FA07211120EB
:1035D00001F042FA0021122001F03EFA00211320EE
:1035E00001F03AFA0021072001F036FA41F2906129
:1035F000102001F031FA40F22721112001F02CFABD
:103600009D21122001F028FA4FF4C851132001F037
:1036100023FA2521292001F01FFA0D212B2001F08A
:103620001BFA0721302001F017FA40F20331312054
:1036300001F012FA0321322001F00EFA40F20621C5
:10364000352001F009FA0821362001F005FA40F290
:103650000641372001F000FA4FF44171382001F0A3
:10366000FBF90721392001F0F7F940F202613C2013
:1036700001F0F2F908213D2001F0EEF9002150207F
:1036800001F0EAF9EF21512001F0E6F90021522082
:1036900001F0E2F940F23F11532001F0DDF94FF45F
:1036A0002741602001F0D8F90121612001F0D4F90F
:1036B00000216A2001F0D0F90021802001F0CCF92E
:1036C0000021812001F0C8F90021822001F0C4F915
:1036D0000021832001F0C0F90021842001F0BCF911
:1036E0000021852001F0B8F91021902001F0B4F9F3
:1036F0004FF4C061922001F0AFF940F2331107207E
:10370000F5E300BF41F28F01EC2001F0A5F941F291
:103710003421EF2001F0A0F94146012001F09CF98D
:103720004FF4E061022001F097F941F230010320EB
:1037300001F092F90021042001F08EF940F20221FB
:10374000082001F089F90021092001F085F9002104
:103750000A2001F081F901210C2001F07DF90021FE
:103760000D2001F079F900210F2001F075F90021F9
:10377000102001F071F90721112001F06DF90021ED
:10378000122001F069F90021132001F065F90121EF
:10379000072001F061F93220FCF7A8FE41F29041C8
:1037A000102001F059F940F22721112001F054F9BD
:1037B0003220FCF79BFE8A21122001F04DF93220C5
:1037C000FCF794FE4FF4D051132001F045F9062187
:1037D000292001F041F90D212B2001F03DF9322083
:1037E000FCF784FE0021202001F036F90021212081
:1037F00001F032F93220FCF779FE0021302001F08F
:103800002BF940F20461312001F026F940F2053134
:10381000322001F021F90021352001F01DF940F698
:103820000941362001F018F94FF40171372001F0F9
:1038300013F940F20131382001F00EF940F207711E
:10384000392001F009F900213C2001F005F940F68A
:103850000A213D2001F000F93220FCF747FE00214B
:10386000502001F0F9F8EF21512001F0F5F8002186
:10387000522001F0F1F840F23F11532001F0ECF832
:103880004FF4274157E10021084601F0E5F8414691
:10389000012001F0E1F84FF4E061022001F0DCF8D2
:1038A00041F23001032001F0D7F80021042001F09B
:1038B000D3F840F20221082001F0CEF800210920BF
:1038C00001F0CAF800210A2001F0C6F801210C20FD
:1038D00001F0C2F800210D2001F0BEF800210F20F8
:1038E00001F0BAF83220FCF701FE40F20111072086
:1038F00001F0B2F83220FCF7F9FD4FF486511020A8
:1039000001F0AAF80721112001F0A6F84FF48873FE
:103910001946122001F0A0F84FF43061132001F095
:103920009BF80021292001F097F844F210012B2088
:1039300001F092F80021502001F08EF8EF21512083
:1039400001F08AF80021522001F086F840F23F1180
:10395000532001F081F84FF41C51602001F07CF8F5
:103960000121612001F078F800216A2001F074F84B
:103970000021802001F070F80021812001F06CF816
:103980000021822001F068F80021832001F064F812
:103990000021842001F060F80021852001F05CF80E
:1039A0001021902001F058F80021922001F054F8E5
:1039B0000121932001F050F81946952001F04CF8B0
:1039C0000021972001F048F80021982001F044F8E8
:1039D00040F27311072089E341F21401E72001F05E
:1039E0003BF84146012001F037F84FF40071022006
:1039F00001F032F841F23801032001F02DF840F2D5
:103A00000221082001F028F80021092001F024F803
:103A100000210A2001F020F800210C2001F01CF800
:103A200000210D2001F018F800210F2001F014F8FA
:103A30000021102001F010F80721112001F00CF8EE
:103A40000021122001F008F80021132001F004F8F1
:103A5000C820FCF74BFD41F29061102000F0FCFF04
:103A600040F22721112000F0F7FF3220FCF73EFD45
:103A70000C21122000F0F0FF3220FCF737FD4FF44C
:103A80000061132000F0E8FF1121292000F0E4FF7D
:103A90000B212B2000F0E0FF3220FCF727FD002156
:103AA000202000F0D9FF40F23F131946212000F0FA
:103AB000D3FF0021302000F0CFFF4FF48374214664
:103AC000312000F0C9FF0021322000F0C5FF4FF483
:103AD0000171352000F0C0FF41F20A61362000F08C
:103AE000BBFF40F207752946372000F0B5FF21469D
:103AF000382000F0B1FF2946392000F0ADFF40F238
:103B000002413C2000F0A8FF40F60F413D2000F0AC
:103B1000A3FF0021502000F09FFFEF21512000F073
:103B20009BFF0021522000F097FF1946532000F020
:103B300093FF4FF41C51602000F08EFF01216120A3
:103B400000F08AFF00216A2000F086FF002180201B
:103B500000F082FF0021812000F07EFF0021822002
:103B600000F07AFF0021832000F076FF00218420FE
:103B700000F072FF0021852000F06EFF10219020E0
:103B800000F06AFF4FF4C0619220FDE3414601203E
:103B900000F062FF4FF4E061022000F05DFF41F2AF
:103BA0003001032000F058FF0021042000F054FFF2
:103BB00040F20721082000F04FFF0021092000F00B
:103BC0004BFF00210A2000F047FF00210C2000F0ED
:103BD00043FF00210D2000F03FFF00210F2000F0E7
:103BE0003BFF1420FCF782FC41F2B061102000F092
:103BF00033FF0121112000F02FFF0121172000F0D9
:103C00002BFF4FF49C71122000F026FF4FF400614F
:103C1000132000F021FF0921292000F01DFF0921B8
:103C20002A2000F019FF0021A42000F015FF002138
:103C3000502000F011FFEF21512000F00DFF002176
:103C4000522000F009FF40F23F11532000F004FF22
:103C50004FF41C51602000F0FFFE0121612000F0B4
:103C6000FBFE00216A2000F0F7FE0021802000F01A
:103C7000F3FE0021812000F0EFFE0021822000F001
:103C8000EBFE0021832000F0E7FE0021842000F0FD
:103C9000E3FE0021852000F0DFFE1321902000F0DC
:103CA000DBFE0021922000F0D7FE0321932000F0DC
:103CB000D3FE4FF48871952000F0CEFE40F27311D0
:103CC000072000F0C9FE32200DE10021072000F09E
:103CD000C3FE3220FCF70AFC4FF48E71122000F074
:103CE000BBFE0121A42000F0B7FE0F21082000F048
:103CF000B3FE08210A2000F0AFFE08210D2000F0DD
:103D0000ABFE40F207731946302000F0A5FE0721F4
:103D1000312000F0A1FE40F20361322000F09CFE51
:103D20004FF4E0642146332000F096FE40F2022179
:103D3000342000F091FE0221352000F08DFE41F686
:103D40000F71362000F088FE1946372000F084FEFF
:103D50000021382000F080FE0021392000F07CFE98
:103D600019463A2000F078FE00213B2000F074FE56
:103D700007213C2000F070FE00213D2000F06CFE89
:103D80003220FCF7B3FB0121072000F065FE012182
:103D9000172000F061FE3220FCF7A8FB4FF4BD5164
:103DA000102000F059FE40F21721112000F054FEBF
:103DB0004FF48F71122000F04FFE4FF4706113200A
:103DC00000F04AFE00212A2000F046FE0A212920A8
:103DD00000F042FE4FF49F71122000F03DFE0021E2
:103DE000502000F039FEEF21512000F035FE002177
:103DF000522000F031FE40F23F11532000F02CFE23
:103E00004FF41C51602000F027FE0121612000F0DA
:103E100023FE00216A2000F01FFE0021802000F018
:103E20001BFE0021812000F017FE0021822000F0FF
:103E300013FE0021832000F00FFE0021842000F0FB
:103E40000BFE0021852000F007FE1321902000F0DA
:103E500003FE4FF44071922000F0FEFD05219320F7
:103E600000F0FAFD0021952000F0F6FD00219720DA
:103E700000F0F2FD0021982000F0EEFD4146012007
:103E800000F0EAFD2146022000F0E6FD41F2380193
:103E9000032000F0E1FD0021042000F0DDFD002101
:103EA0000C2000F0D9FD00210F2000F0D5FD0021ED
:103EB000202000F0D1FD0021212000F0CDFD2121A6
:103EC000072000F0C9FD1420FCF710FB612107203A
:103ED00000F0C2FD1420FCF709FB40F2731107202B
:103EE00000F0BAFD1420FCF701FBFDF7B4BEF9E0C9
:103EF0000021084600F0B0FD0021084600F0ACFDAE
:103F00000021084600F0A8FD0021084600F0A4FDAD
:103F10000121A42000F0A0FD1420FCF7E7FA4FF4E3
:103F20001C542146602000F097FD40F202252946EE
:103F3000082000F091FD4FF40571302000F08CFD59
:103F400043F21571312000F087FD40F20461322008
:103F500000F082FD40F61661332000F07DFD42F254
:103F60001121342000F078FD4FF4A851352000F0E5
:103F700073FD48F20751362000F06EFD41F2074113
:103F8000372000F069FD41F20341382000F064FD64
:103F90002021392000F060FD1A21902000F05CFD06
:103FA0000021102000F058FD0721112000F054FDE1
:103FB0000021122000F050FD0021132000F04CFDE4
:103FC0001420FCF793FA4FF4E661102000F044FD52
:103FD00040F23711112000F03FFD1420FCF786FA63
:103FE0004FF4DC71122000F037FD1420FCF77EFA4C
:103FF0004FF47061132000F02FFD80212A2000F083
:104000002BFD4821292000F027FD1420FCF76EFA33
:104010004146012000F020FD4FF4E061022000F055
:104020001BFD41F23801032000F016FD294608204F
:1040300000F012FD00210A2000F00EFD00210C20EE
:1040400000F00AFD00210D2000F006FD30210E20B9
:1040500000F002FD0021502000F0FEFCEF21512075
:1040600000F0FAFC0021522000F0F6FC40F23F1173
:10407000532000F0F1FC2146602000F0EDFC01210E
:10408000612000F0E9FC00216A2000F0E5FC11212C
:10409000902000F0E1FC4FF4C061922000F0DCFCC5
:1040A00040F20241932000F0D7FC0221942000F05E
:1040B000D3FC1420FCF71AFA0121072000F0CCFCF5
:1040C0001420FCF713FA6121072000F0C5FC40F230
:1040D0007311072000F0C0FC0021202000F0BCFC80
:1040E0000021212000F0B8FC2221002083E10021E2
:1040F000084600F0B1FC0021084600F0ADFC142099
:10410000FCF7F4F90021084600F0A6FC002108465F
:1041100000F0A2FC0021084600F09EFC00210846A9
:1041200000F09AFC0121A42000F096FC1420FCF77A
:10413000DDF94FF41C51602000F08EFC40F60601C2
:10414000082000F089FC40F203731946302000F08B
:1041500083FC0121312000F07FFC0421322000F09B
:104160007BFC4FF48171332000F076FC4FF44074F7
:104170002146342000F070FC40F20311352000F09D
:104180006BFC1F21362000F067FC1946372000F039
:1041900063FC0121382000F05FFC0421392000F08D
:1041A0005BFC1521902000F057FC4FF48261102039
:1041B00000F052FC40F24721112000F04DFC4FF47A
:1041C000DE71122000F048FC4FF46061132000F013
:1041D00043FC7820FCF78AF945464146012000F06F
:1041E0003BFC4FF40071022000F036FC41F230013C
:1041F000032000F031FC08210A2000F02DFC0021F2
:104200000C2000F029FC20210E2000F025FC0021CC
:104210000F2000F021FC0021202000F01DFC0021D7
:10422000212000F019FC3D212A2000F015FC14206B
:10423000FCF75CF92D21292000F00EFC0021502014
:1042400000F00AFC4DF2EF01512000F005FC0021C6
:10425000522000F001FC40F23F11532000F0FCFB23
:104260000021612000F0F8FB00216A2000F0F4FB3F
:104270002146922000F0F0FB0521932000F0ECFB9A
:104280002946FFF7A7BB0121002000F0E5FB0A202B
:10429000FCF72CF941F22861102000F0DDFB0E2123
:1042A000122000F0D9FB40F63921132000F0D4FB96
:1042B0000A20FCF71BF94021112000F0CDFB502112
:1042C000152000F0C9FB0A20FCF710F91E2112206E
:1042D00000F0C2FB0A20FCF709F94FF4B15110209D
:1042E00000F0BAFB42F63921132000F0B5FB0A209A
:1042F000FCF7FCF843464146012000F0ADFB4FF4CB
:104300004071022000F0A8FB41F23801032000F0C8
:10431000A3FB40F20221082000F09EFB08210A20A6
:1043200000F09AFB0021302000F096FB40F20241A1
:10433000312000F091FB4FF48371322000F08CFBB0
:1043400040F20351332000F087FB4FF48271342098
:1043500000F082FB40F20131352000F07DFB40F29D
:104360000771362000F078FB40F20531372000F06D
:1043700073FB4FF40271382000F06EFB40F60B71B6
:10438000392000F069FB00E0DEE00221412000F06E
:1043900063FB4FF41C51602000F05EFB01216120A3
:1043A00000F05AFB4FF40471902000F055FB4FF4DD
:1043B0008571922000F050FB0421932000F04CFB0B
:1043C0001946A02000F048FB0121072000F044FB23
:1043D0002121072000F040FB2321072000F03CFBB7
:1043E0003321072000F038FB40F23311072000F0A2
:1043F00033FB0021A02000F02FFB76E530211520B3
:1044000000F02AFB10219A2000F026FB2021112029
:1044100000F022FB43F22841102000F01DFB022196
:10442000122000F019FB41F23801132000F014FBB8
:104430002820FCF75BF81221084600F00DFB28202D
:10444000FCF754F843F22041102000F005FB43F242
:104450003801132000F000FB4620FCF747F800214C
:10446000302000F0F9FA40F20241312000F0F4FA75
:1044700040F20731322000F0EFFA4FF4417133205F
:1044800000F0EAFA0421342000F0E6FA40F201419B
:10449000352000F0E1FA40F20771362000F0DCFA36
:1044A00040F20531372000F0D7FA4FF4C2631946C5
:1044B000382000F0D1FA1946392000F0CDFA4346F1
:1044C0004146012000F0C8FA4FF44071022000F08C
:1044D000C3FA41F23001032000F0BEFA40F60801B1
:1044E000082000F0B9FA08210A2000F0B5FA4FF4CC
:1044F0001C51602000F0B0FA0121612000F0ACFAFC
:104500004FF49F71902000F0A7FA1946922000F016
:10451000A3FA1946932000F09FFA4FF44051A020CF
:1045200000F09AFA1021A32000F096FA012107204A
:1045300000F092FA2121072000F08EFA23210720B3
:1045400000F08AFA3321072000F086FA40F2331196
:1045500097E60246012000E05043491EC9B2FBD253
:1045600070470000044910B508800120FBF7BEFF2A
:104570000148801C008810BDFE07006C0C4A10B575
:10458000BE211180941C05212180FBF793FE4FF082
:104590006632084BFBF71CFEFBF799FE20800120DA
:1045A0002080FF20208000202080208010BD00007F
:1045B000FE07006C66660440F0B5634C002321469C
:1045C000A279898846F6040741F66316012A01D0CC
:1045D0002AB11DE0B9421BD0B14202D118E0B1426C
:1045E00016D1082814D2DFE800F00406080A0C0EE1
:1045F000101206200CE007200AE0042008E0052045
:1046000006E0012004E0002002E0032000E0022098
:10461000A1F5134C45F2103245F21055BCF1410C96
:1046200007D0B94205D0914203D0A94201D0B1428E
:104630006DD1082812D2DFE800F0110406080A0C38
:104640000E1080230AE0402308E0C02306E0202368
:1046500004E0602302E0A02300E0E023A94202D1AD
:104660004FF4585000E03620914205D0A94203D0C3
:10467000B14201D043F00803B94201D143F0020333
:10468000194600F0E9F9A788B7420AD098062088B1
:10469000618802D5884202D303E0884201D9218093
:1046A00060802A4A0021901C6389AF4213800180F8
:1046B0001BD15D1C158001809D1C158025886D1EF9
:1046C0002E0A0680DB1C1380EBB20380A3891380C3
:1046D00001805D1C15800180991C11806188491E34
:1046E0000C0A0480DB1C13800EE0018023885B1E13
:1046F0001D0A0580DBB20380A3891380018001803D
:104700006188491E0A0A0280C9B20180F0BD0828EA
:1047100012D2DFE800F0040608110A0C0E10302354
:104720000AE0102308E0202306E0382304E02823D1
:1047300002E0182300E00823BDE8F040032043F422
:10474000805100F089B9000020000020FE07006CB5
:104750002DE9F34F01464FEA102A00F0FF090198B6
:104760004A4E040AC3B23046B588DFF824E1828994
:104770004089A5F513470EF1020B413F1BD0A5F56B
:10478000A647103F17D096F806C03688A5F5D04743
:10479000A6EB0108A8F10108043F16D0A5F5C857FB
:1047A000633F26D0394EA5F5AA47103F50D0BCF143
:1047B000010F60D061E0AEF800005846ABF800A0F1
:1047C000ABF80090AEF800200FE0BCF1010F01D172
:1047D0001FFA88F1AEF800000E0A5846ABF80060E8
:1047E000C9B2ABF80010AEF8002004800380BDE829
:1047F000FC8F2649BCF1000F1BD0AEF800005846D4
:10480000ABF800A0ABF80090761E350AABF800506C
:10481000F5B20580AEF80020ABF80040ABF80030F0
:104820004988491E0A0AABF80020C9B2ABF800104B
:10483000DDE71FFA88F5AEF8000000265846ABF811
:104840000060ABF800602E0AABF80060EDB2E0E764
:10485000AEF80000ABF800A0401CAEF80000ABF8CA
:104860000090AEF80020ABF80040521CAEF80020DB
:10487000ABF80030BBE71FFA88F100F0EDF8B08923
:104880000199BDE8FC4F00F0E7B8000020000020CF
:10489000FE07006C2DE9FF4F1D460C468A4658075F
:1048A00000D0012000EBD50069084843203A00F011
:1048B000FF09D0B20026DFF89CB0029045E00C2D35
:1048C00012D0102D15D0182D41D10298224900EB9D
:1048D000C00000BF01EB80004FF00008875D380684
:1048E0000CD51E4802880DE002981D4900EB4000DF
:1048F000F0E71C49029801EB0010EDE70D9828B98C
:104900001648428821460098FCF7C4FF7806070E37
:10491000641CBBF80200A4B2A04218D9A4EB0A00A0
:10492000A84209D100985446401C80B20090BBF8C0
:10493000001081420BD906E008F1010000F0FF08E9
:10494000B8F1080FCBD3761CF6B24E45B7D3BDE80D
:10495000FF8F000020000020C05F00080000002042
:104960005C550008D05900082DE9F84F044600F0C6
:10497000FF0910190D46DDE90AB61FFA80F858192B
:1049800087B24FF0000A12E0444503D305EB0B0059
:104990004C4685B2BD420FD25B4629462046CDF833
:1049A00000A0FFF777FF04EB5B0084B2761C32783F
:1049B000A2F120005E28E7D9BDE8F88F2DE9FF4F6E
:1049C00081B04FF00008DDE90EBA1E46814644462C
:1049D0000AF001054FEA5B072CE0301B401EC1B214
:1049E0000A20FFF7B6FD0399B1FBF0F00A21B0FBF6
:1049F000F1F201FB1200B8F1000F05D1711E8C42DB
:104A000002DA48B14FF001083030C2B207FB04901F
:104A100080B25B46009508E05FEA0A6007FB0490FD
:104A200080B25B4600950AD530220299FFF732FF2B
:104A3000641CE4B2B442D0D305B0BDE8F08F2022AC
:104A4000F3E700000248034900890880704700002E
:104A500020000020FE07006C024A1080901C01809C
:104A600070470000FE07006C00B58FB01C2168463F
:104A7000FBF7A3FB1C2107A8FBF79FFB1C484FF08B
:104A80002041102201601B49416006218160002104
:104A9000C160C0E904128161C16113020162C0E911
:104AA00009139302C0E90B13416381630120009055
:104AB0000F200DF1080C112301908CE80F000691D6
:104AC000CDE907100DF1240C03208CE80F000D91A7
:104AD00007AA69460648FCF7F5FB08B1FBF791FC0D
:104AE0000548C16941F48061C1610FB000BD00009B
:104AF00030000020040100A0000001402DE9F04139
:104B000086B0002536480095019502950395816988
:104B100041F040018161816901F0400104918169A6
:104B200041F010018161816901F0100104918169F6
:104B300041F004018161816901F0040104918169FE
:104B400041F008018161816901F0080104918169E6
:104B500041F480718161816901F4807104918169FE
:104B600041F02001816180691E4F00F02000049017
:104B7000012220213846FBF70EFEDFF86C80002270
:104B800040F201114046FBF706FE0122202140467B
:104B9000FBF701FE1820CDE90005012469460294C7
:104BA0003846FBF7F5FC2020CDE900040226CDE9CC
:104BB000024669463846FBF7EBFC8DE87000694613
:104BC0000A48FBF7E5FC40F22110CDE90004CDE9ED
:104BD000024669464046FBF7DBFC06B0BDE8F081C3
:104BE0000010024000180140000C01400008014084
:104BF0000D4810B50B4901600C49416000214FF48C
:104C000080428160C0E9031241618161C16101623A
:104C1000FBF7CCFD002803D0BDE81040FBF7F1BB4B
:104C200010BD00000058004078000020A086010060
:104C3000FEE7704770477047FCF74AB830B58FB051
:104C400028216846FBF7B9FA14210AA8FBF7B5FA40
:104C500001210804CDE900100024029402250491EA
:104C6000CDE907504FF4E01009906846FCF79AF937
:104C70000F20CDE90A056802CDE90C4002210AA8FF
:104C80000E94FCF7B3F80FB030BD00000D4801687A
:104C900041F00101016041680B4A11404160016827
:104CA0000A4A11400160016821F4802101604168D5
:104CB00021F4FE0141604FF41F0181600449C003EB
:104CC00008607047001002400000FFF8FFFFF6FE8A
:104CD00008ED00E0FEE70907090E002804DB00F1FB
:104CE000E02080F80014704700F00F0000F1E02091
:104CF00080F8141D704702E008C8121F08C1002A7E
:104D0000FAD170477047002001E001C1121F002A4C
:104D1000FBD1704770B505460C461646104600F0AC
:104D2000E9FB90B98DB184B100206060206032460B
:104D30002946201D00F06AFA002808D1324629468B
:104D40002046BDE8704000F0DFB94FF0FF3070BD85
:104D500070B58EB016460C460546142210496846BA
:104D6000FBF712FA0E492022143105A8FBF70CFAC2
:104D7000304600F0BFFB78B974B1327E6946032A31
:104D8000E2785DF8221004D1A27805AB53F8222016
:104D9000114429600EB070BD4FF0FF30FAE70000FB
:104DA0001C6D00084FF0E0225169054BB1FBF3F197
:104DB000414390699369C31A8B42FBD3704700004B
:104DC00040420F0038B504004FF0000000901FD0A3
:104DD0000B4602226946F42000F01DF8002816D187
:104DE0009DF80010490921709DF80010C1F382015F
:104DF00061709DF801104909A1709DF80110C1F37F
:104E0000820121719DF8011001F00101617138BD2D
:104E10004FF0FF3038BD2DE9F041064690460F4671
:104E20001C46184600F066FB050010D17FB1607883
:104E300008B946F08006D4F80CC0424639463046E0
:104E40006368E047207220B16FF0010501E04FF088
:104E5000FF352846BDE8F0817FB504004FF0000023
:104E60000D4600900190029003903FD00B46062221
:104E70006946F720FFF7CFFF002821D19DF80110E8
:104E80009DF800000A019DF8021042EA003040EA55
:104E9000111003909DF803009DF8041000039DF885
:104EA000052040EA011040EA121001460290114824
:104EB000039A431E824205D3994203D86FF005003E
:104EC00004B070BD814204D39A4202D86FF004004E
:104ED000F6E7824204D3814202D36FF00600EFE787
:104EE0002A46214602A8FFF715FFE9E74FF0FF30F9
:104EF000E6E70000F1FF0F0038B5040012D00B46C2
:104F000001226946F320FFF786FF002809D19DF8AA
:104F10000010C1F3C00121709DF8001001F00101E3
:104F2000617038BD4FF0FF3038BD10B588B0044611
:104F300000F0E0FA00280CD1234601221946D020C7
:104F4000FFF769FF002804D12078582803D06FF0BC
:104F5000030008B010BD1C216846FBF72EF923465C
:104F6000192269468820FFF756FF0028F1D1BDF8C5
:104F70000010A183BDF80210E183BDF80410218464
:104F8000BDF806106184BDF80810A184BDF80A10B0
:104F9000E184BDF80C102185BDF80E106185BDF8C7
:104FA0001010A185BDF81210E185BDF814102186FE
:104FB000BDF8161061869DF8181084F83410C8E703
:104FC00010B5002260B1084CEC232370012343701C
:104FD000064BC36041600749054BC0E9043101E05D
:104FE0004FF0FF32104610BD0C000020F94F0008B2
:104FF000E5500008A54D00083EB51C4641F2883337
:1050000092B28DE80E000246034801230178204643
:10501000FBF786FC40B23EBD0C0000200A4601466C
:10502000002000F02FB900F02DB92DE9FC471446FF
:10503000894606461F46042A00D90424184600F073
:1050400059FA05004FF0FF3839D19EB3B9F1000F7E
:1050500035D084B399F800008DF80000787830B12D
:1050600007E0315C01F07F013154401CC0B2A04226
:10507000F7D3012C13D96946CC46012009E001EB96
:105080004003325C03F8012C1CF8002001F81020CA
:10509000401C2246A042F2D308EB420200E0224626
:1050A0003C69307869467B68A047387240B16FF040
:1050B000010505E003E0FFE76FF0020500E045466B
:1050C0002846BDE8FC871CB5E0218DF80010B6210C
:1050D0008DF804100346012201A96846FFF7A5FFD9
:1050E0001CBD00003EB51C4641F2883392B28DE8EB
:1050F0000E0002460348012301782046FBF720FDFD
:1051000040B23EBD0C000020F0B5936B3D4C03EB6C
:10511000D37304EB6304E31704EB93739B105B43BB
:105120004FEAE37C03EB5C55B2F92C60ED1275435A
:10513000B2F92A6003EBDC43664305EB4605EE1744
:1051400005EB9675168DAD1005EB0645B2F924609A
:105150005B136643B2F9264007465C43E31704EB52
:105160005373DB1006EBD67403EB64034FF4802417
:1051700093FBF4F4538C04F500446343DC170020E4
:1051800003EB5443DB133CD04968EC17C1F58011A5
:1051900005EB1454A1EB243140F635446143B1F1E1
:1051A000004F03D24900B1FBF3F102E0B1FBF3F190
:1051B0004900CB085B43B2F932405B0B6343DC1719
:1051C00003EB14531C13B2F930508B086B43DD17FB
:1051D00003EBD543B2F92E2004EB63331A44D31703
:1051E00002EB137201EB221147F23052064B91424F
:1051F00002D21146032003E0994201D91946042046
:105200003960F0BD0006FFFFB0AD0100F0B50968E0
:10521000958BCE1701EB56736F4201EB1671C5EB00
:105220002111DB10494303EB4703CD17B2F91E7080
:1052300001EB1551B2F920507B430913DF17694385
:1052400003EB5753CD17DB1201EB954103EBA13173
:10525000916301EB81018031CA1701EB12610446B1
:10526000074B0020091242F23412994202DA194621
:10527000012003E0914201DD114602202160F0BDD2
:1052800060F0FFFF7CB505464FF00000009021A0C4
:105290000C0000681646019039D013460222694678
:1052A000F420FFF7B8FD002830D13046FFF70BFFA0
:1052B00000282BD12146684600F028F9A1789DF8F6
:1052C0000100334661F347108DF801002179022275
:1052D00061F384008DF80100617961F300008DF8BD
:1052E0000100694601A8FFF7A0FE00280ED1002D9D
:1052F0000CD035769DF80000334665F301008DF83B
:1053000000000122694601A8FFF78FFE7CBD4FF027
:10531000FF307CBDF4F5000098B0FBF7E1FCFFF72F
:105320008DFCFFF7EBFBFFF79FFBFFF761FCFCF742
:1053300043FB554E4FF478401024308053A0CDE904
:1053400000402346C82232211E20FFF70DFB53A048
:10535000CDE900401023C82246211E20FFF704FBA0
:1053600051A0CDE900401023C8225A211E20FFF78A
:10537000FBFA4FA0CDE900401023C8226E211E2069
:10538000FFF7F2FA1F2030804CA0CDE90040102337
:10539000C82282211E20FFF7E7FA4DA0CDE9004088
:1053A0001023C82296211E20FFF7DEFA4D4902A8DD
:1053B000FFF706FE02A8FFF7B8FD02A913A8FFF742
:1053C00001FD03208DF84F0000268DF84E008DF86A
:1053D000506002A913A8FFF721FE02AA13A9032017
:1053E000FFF721FE02AA13A915A8FFF7B1FC6D1C57
:1053F000EDB20A20FBF77AF8322DF8D102A916A8EF
:10540000FFF77AFD9DF85800B8BB079A03991598E5
:10541000904702A911A8FFF71FFD1298002801DA92
:1054200031A000E031A0CDE9004010231A469621BA
:105430006E20FFF799FA1298642590FBF5F2CDE9FA
:105440000046022382217620FFF7B8FA1298022341
:1054500090FBF5F105FB11028020CDE9004082218F
:105460008E20FFF7ABFA1198CDE90046B0FBF5F2BC
:10547000042396217620FFF7A1FA20211C48FBF790
:1054800083F90025B3E700000000002053544D339A
:1054900032463130335A455436000000424D5032C6
:1054A00038302054455354004C756B6500000000A3
:1054B000323032312F31312F3031000054656D7070
:1054C00065726174653A2030302E30304300000040
:1054D00050726573737572653A20203030303068D1
:1054E00050610000780000202D0000002000000026
:1054F000000C014038B1C16829B1016919B1406996
:1055000008B1002070474FF0FF307047C978052977
:1055100011D2DFE801F0030A11171D00017821F014
:10552000FC0141F02001091D04E0017821F0FC019B
:1055300041F0280101707047017821F0FC0141F031
:105540002C01F7E7017821F0FC0141F03001F1E78F
:10555000017821F0FC0141F05401EBE7000000006C
:105560000000000000000000000000003F400000BC
:10557000000000000000300040003000400000004B
:1055800009000BC03D000BC03D00090018C02440BD
:105590007FE0224031800000180024C01B000D80F5
:1055A0003240018003801C4027401C80074000409F
:1055B000100060000000000000000000000000007B
:1055C00000001F80204040200000402020401F801D
:1055D00000000000090006001F800600090000000E
:1055E000040004003F80040004000000001000607C
:1055F000000000000000000004000400040004009B
:105600000400000000000040000000000000000056
:10561000002001C006003800400000001F8020402C
:10562000204020401F800000000010403FC000408C
:105630000000000018C02140224024401840000013
:1056400010802040244024401B80000002000D00F8
:1056500011003FC0014000003C8024402440244011
:10566000238000001F802440244034400380000039
:105670003000200027C03800200000001B8024409C
:10568000244024401B8000001C0022C022402240F5
:105690001F80000000000000084000000000000023
:1056A0000000000004600000000000000000040092
:1056B0000A0011002080404009000900090009008B
:1056C0000900000000004040208011000A00040092
:1056D0001800200023402400180000001F802040F4
:1056E000274029401F400000004007C039000F003C
:1056F00001C0004020403FC0244024401B800000E7
:105700001F802040204020403080000020403FC0CB
:10571000204020401F80000020403FC024402E40F9
:1057200030C0000020403FC024402E003000000068
:105730000F001080204022403380020020403FC0F4
:10574000040004003FC02040204020403FC02040D3
:10575000204000000060202020203FC020002000CA
:1057600020403FC024400B0030C0204020403FC0BC
:1057700020400040004000C03FC03C0003C03C004F
:105780003FC0000020403FC00C4023003FC020002D
:105790001F802040204020401F80000020403FC04C
:1057A00024402400180000001F802140214020E0F8
:1057B0001FA0000020403FC02440260019C0004028
:1057C00018C0244024402240318000003000204096
:1057D0003FC020403000000020003F8000400040DB
:1057E0003F80200020003E0001C00700380020005C
:1057F000380007C03C0007C038000000204039C016
:10580000060039C0204000002000384007C0384062
:1058100020000000304021C02640384020C0000059
:10582000000000007FE040204020000000007000E9
:105830000C000380004000000000402040207FE07A
:1058400000000000000020004000200000000000D8
:1058500000100010001000100010001000000000E8
:1058600040000000000000000000028005400540EC
:1058700003C0004020003FC00440044003800000FB
:105880000000038004400440064000000000038044
:10589000044024403FC00040000003800540054014
:1058A00003400000000004401FC0244024402000AA
:1058B000000002E0055005500650042020403FC083
:1058C0000440040003C000400000044027C0004022
:1058D0000000000000100010041027E0000000008D
:1058E00020403FC00140070004C004402040204049
:1058F0003FC000400040000007C0040007C0040093
:1059000003C00000044007C00440040003C000407E
:10591000000003800440044003800000041007F0EE
:105920000450044003800000000003800440045041
:1059300007F00010044007C002400400040000000B
:10594000000006400540054004C0000000000400BF
:105950001F80044000400000040007800040044015
:1059600007C000400400070004C0018006000400D6
:10597000060001C0070001C006000000044006C088
:10598000010006C0044000000410071004E001807C
:10599000060004000000044005C00640044000006A
:1059A0000000000004007BE0402000000000000038
:1059B0000000FFF000000000000040207BE0040039
:1059C0000000000040008000400020002000400057
:1059D00000000000000000000000000000000000C7
:1059E0000000000000001FCC000C000000000000C0
:1059F0000000080030006000080030006000000077
:105A0000022003FC1E20022003FC1E2002200000B6
:105A100000000E1811043FFF10840C7800000000F5
:105A20000F0010840F3800C0077818840078000039
:105A300000780F8410C411240E9800E4008400083C
:105A40000800680070000000000000000000000076
:105A500000000000000007E01818200440020000C9
:105A6000000040022004181807E0000000000000B9
:105A70000240024001800FF001800240024000001D
:105A80000080008000800FF800800080008000000F
:105A90000001000D000E00000000000000000000EA
:105AA0000000008000800080008000800080008076
:105AB0000000000C000C00000000000000000000CE
:105AC0000000000600180060018006001800200099
:105AD000000007F0080810041004080807F0000090
