:020000040800F2
:1000000098060020D5000008BD020008B9020008CB
:1000100000000000000000000000000000000000E0
:100020000000000000000000000000009906000829
:100030000000000000000000BD0300087507000874
:100040000501000805010008050100080501000878
:100050000501000805010008050100080501000868
:100060000501000805010008050100080501000858
:100070000501000805010008050100080501000848
:100080000501000805010008000000000501000846
:100090000501000805010008050100080501000828
:1000A0000501000805010008050100080501000818
:1000B0000501000800000000050100080000000024
:1000C0000348854600F05CF800480047F50B00083F
:1000D000980600200C4880F308880C480168090E37
:1000E0000B4A914205D10B480B4901600B480C4962
:1000F00001600C4880470C480047FEE7FEE7FEE73A
:10010000FEE7FEE7FEE7000098060020040000007E
:100110001F00000018100240010000000000014014
:100120000000000079070008C100000830B50B4648
:10013000014600202022012409E00D46D5409D42C1
:1001400005D31D469540491B254695404019154647
:10015000521E002DF1DC30BD70B50024254600286C
:1001600001DA01244042002901DA01254942FFF762
:10017000DDFFAC4200D04042002C00D0494270BDAF
:10018000064C0125064E05E0E36807CC2B430C3CEA
:1001900098471034B442F7D3FFF796FFF4170008DE
:1001A0001418000800E0401E0028FCD17047F0B58C
:1001B0000A4600210023002400BF3DE001258D40B8
:1001C0002B4615681D402C469C4234D11579012DD3
:1001D00002D01579022D16D185684F000326BE4046
:1001E000B543856055794E00B540866835438560D6
:1001F000858801268E40B5438580858896798E4016
:10020000B6B23543858005684F000326BE40B5432E
:10021000056015794E00B540066835430560C56830
:100220004F000326BE40B543C560D5794E00B540AA
:10023000C6683543C560491C1029BFD3F0BDF0B571
:10024000002300244D07EE0E1546B5402B46CD1079
:10025000AE0005462035AD594E07F70E0F26BE40BD
:10026000B543CE10B60007462037BD51CD10AE00C5
:100270003D46AD591D432C46CD10AD003E46745150
:10028000F0BD02460020138A0B40002B01D0012054
:1002900000E00020704701857047816170470000D1
:1002A0000449016000210171012141710021817126
:1002B000C1717047FFFF000000BFFEE770470000FC
:1002C00000218278002A27D0184A03231B02D21863
:1002D00003789B109B00D15802789207D30EFF221F
:1002E0009A400B469343194642789207120E0378C0
:1002F0009B07DB0E9A4011430C4A03231B02D218C2
:1003000003789B109B00D1500278D306DB0E0122AC
:100310009A40064B1A6007E00278D306DB0E0122F2
:100320009A40024B80331A607047000000E100E001
:1003300010B5002819DA1A4A03071B0F083B9B085F
:100340009B00D2588307DC0EFF23A3409A438B0700
:100350001B0E8407E40EA3401A43114B0407240F1D
:10036000083CA408A4001A5118E00E4A03231B02FB
:10037000D21883089B00D2588307DC0EFF23A340CA
:100380009A438B071B0E8407E40EA3401A43054BC8
:10039000032424021B198408A4001A5110BD000074
:1003A0001CED00E000E100E008B51B21684601708B
:1003B000012141708170FFF783FF08BD7047000085
:1003C000002905D0054A52690243044B5A6104E0F2
:1003D000024A52698243014B5A6170470010024041
:1003E000002905D0054A92690243044B9A6104E052
:1003F000024A92698243014B9A61704700100240A1
:10040000FEB50446002500260020029001900090D1
:100410000027864840680C2108400546002D06D07C
:10042000042D07D0082D08D00C2D2CD128E08048B1
:1004300020602BE07E48206028E07C4840680F2147
:10044000890408400646794840680321C9030840EA
:100450000290B00C861C0298002803D175483746DC
:1004600047430BE07148C06A0007000F401C019031
:100470006F480199FFF75AFE70430746276005E071
:100480006D48206002E06A48206000BF00BF6748F6
:100490004068F021084005462D096848405D0090FD
:1004A00020680099C84060606048406807210902E0
:1004B000084005462D0A6148405D0090616800983B
:1004C000C140A1605948006BFF21013108408842BA
:1004D00002D05B48E0600DE0544840680121890388
:1004E0000840884203D0A0684008E06002E0A068AD
:1004F0008008E0604D48006B40210840402802D051
:100500005048206102E00120C00320614748006B91
:1005100010210840102802D04548606101E02068A1
:1005200060614248006B8007800F002802D1A068FC
:10053000A06119E03D48006B8007800F012802D1BF
:100540002068A06110E03948006B8007800F022806
:1005500002D18003A06107E03448006B8007800F60
:10056000032801D13248A0613048006B03210904FF
:100570000840002802D1A068E06120E02B48006B11
:1005800003210904084001210904884202D120689E
:10059000E06114E02548006B0321090408400121B3
:1005A0004904884202D18010E06108E01F48006BD6
:1005B000032109040840884201D11D48E0611B481D
:1005C000006B032189040840002802D1A068206242
:1005D00020E01648006B03218904084001218904AA
:1005E000884202D12068206214E01048006B032189
:1005F000890408400121C904884202D10011206207
:1006000008E00A48006B032189040840884201D1B0
:10061000074820620548006B80210840802802D0EE
:100620000548606200E06762FEBD00000010024005
:1006300000127A0000093D00006CDC02000000207E
:10064000809FD500128000001CB56846FFF728FE89
:1006500080200090002168460171C1710321417121
:1006600069460248FFF7A3FD1CBD000000140048C6
:100670001CB56846FFF714FE8020009001216846F3
:100680000171002181710321417169460148FFF721
:100690008EFD1CBD00140048704700000CB5002002
:1006A00001900090314800680121090408432F4956
:1006B000086000BF2D4800680121490408400090EF
:1006C0000198401C01900098002804D105210903DD
:1006D00001988842EED1254800680121490408406C
:1006E000002802D00120009001E000200090009836
:1006F000012839D111201E4908601C4840681B4957
:100700004860084640684860084640687F21C90341
:100710008843164948600846406811210904084387
:1007200012494860084600680121090608430F493C
:10073000086000BF0D4800680121490608400028F4
:10074000F8D00A4840688008800008494860084698
:100750004068022108430549486000BF03484068DB
:100760000C2108400828F9D10CBD000000100240FF
:10077000002002407047000010B51B4800680121AE
:100780000843194908600846406818490840164956
:100790004860084600681649084013490860084642
:1007A00000680121890488430F49086008464068B1
:1007B0003F21090488430C4948600846C06A000983
:1007C0000001C8620846006BFF2154318843064986
:1007D00008630846406B400840004863002088607A
:1007E000FFF75CFF10BD0000001002400CB8FFF8DE
:1007F000FFFFF6FE002904D0026801231A430260BD
:1008000003E00268520852000260704700B589B0E8
:1008100001214804FFF7D4FD01218803FFF7E0FD23
:10082000E12040020390002004900590069008907B
:100830000C20079001220921C806FFF700FD0122C4
:100840000A210920C006FFF7FAFC032040020190AC
:100850000221684601720321417200218172012147
:10086000C17201A90920C006FFF7A1FC03A907482E
:1008700000F03CF801220649044800F015F8012177
:100880000248FFF7B7FF09B000BD00000038014083
:100890000501050002460020D3690B40002B01D062
:1008A000012000E000207047F8B503460024002630
:1008B00000960025002018460E04340ECEB2009695
:1008C0000127009EB7403D46022C01D1001D02E0E9
:1008D000032C00D10830002A03D006682E4306609E
:1008E00002E00668AE430660F8BD0000F0B58BB0CC
:1008F00004460D46002700200A9000262068400884
:10090000400020606668032109033046884306469C
:10091000A8680643666026682D480640E96868684E
:1009200008432969084306432660A6680321090293
:1009300030468843064668690643A6606846FFF766
:100940005FFD2448844202D106980A900DE02248B7
:10095000844202D107980A9007E02048844202D1DD
:1009600008980A9001E002980A9020680121C903C2
:10097000084000280CD029680A9A5000FFF7D6FBDF
:10098000074629680A9A5000FFF7D0FB0E4609E097
:1009900029680A98FFF7CAFB074629680A98FFF7F3
:1009A000C5FB0E4628684008B04200D87F1C20686E
:1009B0000121C9030840002806D03807460F3846F1
:1009C0000749084030430746A7810BB0F0BD00003F
:1009D000F3E9FFFF003801400044004000480040B8
:1009E000F0FF0000CA05D20D028570470FB410B5A4
:1009F00003A9044B044A029800F018F810BC08BC84
:100A000004B018477D0B00085C00002002E008C815
:100A1000121F08C1002AFAD170477047002001E078
:100A200001C1121F002AFBD170470000FFB58DB035
:100A30000446002506E025280AD0109A0F99904711
:100A4000641C6D1C20780028F5D1284611B0F0BD3B
:100A500000270121484A009700E00743641C2378DF
:100A60000846203B98401042F7D120782E2817D115
:100A7000042007436078641C2A280CD10E98641C5B
:100A800002C800910E900BE000990A2251433039C0
:100A90004018641C00902078014630390929F3D9A8
:100AA00020780028D1D0642808D0692806D075287D
:100AB0001ED0109A0F9990476D1C5BE00A200E998A
:100AC000019001C90E91002802DA40422D2102E076
:100AD000390504D52B216A461172012103E0F9077B
:100AE00004D02021F7E70BAE0B910DE00021FAE7CF
:100AF0000A200E99019001C90E91F7E70199FFF7BD
:100B000015FB3031761E31700028F7D103A8801B09
:100B100020300190780701D5009801E00120009075
:100B20000199884201DD401A00E000200027009072
:100B300006E002A8109AC05D0F9990476D1C7F1CBB
:100B40000B988742F5DB04E0109A30200F9990470C
:100B50006D1C0099481E00900029F5DC05E03078F6
:100B6000109A761C0F9990476D1C0199481E0190B0
:100B70000029F4DC641C65E70928010070B504460F
:100B80000D46E1B20548FFF72DFF00BF8021034865
:100B9000FFF780FE0028F9D0204670BD00380140E4
:100BA00010B5002823D0124B0022001F196803E063
:100BB000814203D80A4649680029F9D1002A0AD09F
:100BC0001368841A9C4204D10068181810601046FB
:100BD00002E0506000E01860002907D002680B1A9C
:100BE000934203D10B68D21802604968416010BD7E
:100BF0006000002092B000260121C804FFF7E0FB4E
:100C0000012040030B90002108A881740121017488
:100C10000021C17441740BA94448FFF7C8FA01A828
:100C2000FFF7EEFB64210298FFF780FA0546681E85
:100C30003F49884200D90CE0681E3E4948610321C3
:100C4000081FFFF775FB00203A49886107200861FB
:100C500000BFFFF7DBFDFFF7A7FB37A0FFF7C6FEDE
:100C60007D20C000FFF79EFA06E03BA0FFF7BEFE26
:100C700001208005FFF796FA00F0B2FB0028F4D1BE
:100C80003DA0FFF7B3FE0DA90EA800F091FB0446AE
:100C9000002C0AD16846018F40A0FFF7A7FE6846E6
:100CA000818E43A0FFF7A2FE02E045A0FFF79EFE63
:100CB00000F063FB044637E010A911A800F062FBC6
:100CC0000446002C0AD110A8818843A0FFF78EFEAD
:100CD00010A8018844A0FFF789FE02E046A0FFF7B4
:100CE00085FE711C89B20E460846E1210901FFF715
:100CF00033FA4848814213D10FA800F0ABFA0446FA
:100D0000601C002802D144A0FFF770FE0F98010C70
:100D10004AA0FFF76BFE0F9881B251A0FFF766FE65
:100D200001204005FFF73EFAC6E700000008004832
:100D3000FFFFFF0000E000E05347502073656E7333
:100D40006F722070726F62696E6720737461727463
:100D50002E2E2E0A000000005347502073656E733C
:100D60006F722070726F62696E67206661696C6570
:100D7000642E2E2E0D0A00005347502073656E73AB
:100D80006F722070726F62696E672073756363653E
:100D9000737366756C210D0A00000000457468616C
:100DA0006E6F6C207369676E616C3A20257509005F
:100DB0004832207369676E616C3A2025750D0A0010
:100DC0006572726F722072656164696E6720736903
:100DD000676E616C730D0A0074564F4320203A20F1
:100DE0002564707062090000434F326571203A201B
:100DF000256470706D0D0A006572726F72207265E5
:100E00006164696E67204941512076616C75657334
:100E10000D0A00000F0E00004661696C65642074C5
:100E20006F2067657420626173656C696E652072FE
:100E3000656164696E67730D0A0000002A2A2A2A18
:100E4000426173656C696E652076616C7565733A95
:100E50002065434F323A20307825640D0A000000A7
:100E600020262054564F433A2030782564200D0A1E
:100E700000000000F0B50B30C108C900144F002677
:100E8000144A0FE003688B420BD38B4205D95C1ADE
:100E90004318456830C3083B00E04368136002C054
:100EA00004E0021D10680028ECD13046002803D170
:100EB0003868002801D00020F0BD064A06481060BE
:100EC000064A121AD208D20044C001203860D7E77F
:100ED00064000020600000209C0000209802002098
:100EE00070B505460C480078012811D129890A48B7
:100EF0001C3000F0EBF90446002C02D00020C04367
:100F000070BD284600F00CFB002003490870F7E78D
:100F10000020C043F4E700006800002010B5402125
:100F20000148FFF7BAF910BD0014004810B5402180
:100F30000148FFF7B0F910BD0014004810B580213A
:100F40000148FFF7AAF910BD0014004810B5802130
:100F50000148FFF7A0F910BD0014004810B580212A
:100F60000148FFF78EF910BD0014004870B5054622
:100F70000E4614463146284600F007F8A04202D03B
:100F80000020C04370BD0020FCE770B502460B4650
:100F9000FF20002114E0555C684008240CE0802507
:100FA0000540002D04D0450031267540E8B201E02F
:100FB0004506280E651EECB2002CF0DC4D1CA9B2D3
:100FC0009942E8DB70BD10B500F0D4F810BDF8B55B
:100FD00005460E46174600F050F86900491CC8B295
:100FE00000F091F800900098002803D000F053F82A
:100FF0000098F8BD002405E0012000F009F8305504
:10100000601C84B2BC42F7DB00F045F80098F0E7C2
:1010100070B505460026FFF791FFFFF715FB072483
:1010200012E0052000F0C0F8FFF778FFFFF796FF09
:10103000002801D0012000E00020A0403043C6B2CB
:10104000FFF774FF601E44B2002CEADAFFF710FBD2
:10105000002D02D0FFF77AFF01E0FFF76FFF0520B8
:1010600000F0A2F8FFF75AFF052000F09DF8FFF707
:101070005DFFFFF763FF304670BD10B5FFF7F8FA6C
:10108000FFF764FF052000F08FF8FFF74FFF052002
:1010900000F08AF810BD10B5FFF7EAFAFFF756FF27
:1010A000052000F081F8FFF739FF052000F07CF8FB
:1010B000FFF744FF052000F077F810BDF7B50646AE
:1010C0000F46FFF7DAFF7106080E00F01CF8054620
:1010D000002D03D0FFF7DFFF2846FEBD00240AE005
:1010E000385D00F010F80546002D02D0FFF7D3FF61
:1010F00004E0601C84B202988442F1DB00BFFFF779
:10110000CAFF2846E9E770B50546FFF7B1FA07249C
:1011100016E0FFF70BFF28462041C007C00F00284C
:1011200002D0FFF70BFF01E0FFF710FF052000F0F2
:101130003BF8FFF7F3FE052000F036F8601E44B2DE
:10114000002CE6DAFFF7F2FEFFF7F8FE052000F0CC
:101150002BF8FFF779FAFFF7E1FEFFF7FFFE002813
:1011600001D0012000E000200646FFF7DFFE3046F8
:1011700070BD00001CB501218805FFF721F9C020D2
:1011800000900121684601710021817103214171A4
:1011900069460448FFF70BF8C0210248FFF77DF8C5
:1011A0001CBD0000001400480A21484300E0401E16
:1011B0000028FCD170470000F0B504460020C04371
:1011C0002678360227883F123E43B3B21E4E338242
:1011D0001E4E1D4FBE61002530E01D4E3668AF002B
:1011E000F159002224E057008E68F65B0F273F0379
:1011F0003E401F40BE4219D1FF2601361E40002E40
:1012000014D157008E68F65BE0273E401F40BE4277
:101210000CD157008E68F65DF606F60EDF06FF0E5F
:10122000BE4203DC084EB161002004E0561C32B21D
:101230008E899642D7DC00BF6E1C35B2044EB6884C
:10124000AE42CADCF0BD000068000020BC150008FA
:10125000EC17000870B50446022000F04DF9054671
:10126000681C002801D1401E70BD0648808B20807C
:101270000448C08B60802068002801D1401EF3E73D
:101280000020F1E76800002010B50246002300218D
:101290000AE00D48806900688C000359987A9042F2
:1012A00000D106E0481CC1B20748806980888842A6
:1012B000EFDC00BF044880698088884201D10020AB
:1012C00010BD1846FCE7000068000020F3B585B0AB
:1012D000074606984100401880B203906D462946A3
:1012E0005820039AFFF773FE04900498002803D057
:1012F0000020C04307B0F0BD0024002614E0A11C6C
:101300006A5C28190221FFF731FE401C002801D138
:10131000401EEFE7285DB855601C295C701C3954ED
:10132000E01C84B2B01C86B203988442E7DB002044
:10133000E0E7F8B507460C4615461E46384600F06D
:101340000DF8401C002801D1401EF8BD2046FFF7D3
:101350002BFF31462846FFF7B9FFF6E770B5044684
:10136000022221465820FFF7A9FE0546002D02D093
:101370000020C04370BD0020FCE710B5002000F045
:10138000BBF810BD70B504460D46012000F0B4F85E
:10139000401C002801D1401E70BD0448808B208075
:1013A0000248C08B28800020F6E70000680000207B
:1013B00070B504460D460848007800F09DF8401CC2
:1013C000002801D1401E70BD0448808B2080034856
:1013D000C08B28800020F6E7CC15000868000020AC
:1013E000F8B5334C002021461C390870FFF7EBFD9F
:1013F00002232246FF21F5312E48FFF79AFF0546CA
:10140000681C002801D12846F8BD207800022188F8
:101410000904090E08430104227912042068000C13
:101420001043020223791B042068000C18430004B7
:10143000000E024390B20843002621790A02A188D7
:101440000904090E0A43120433046168090C1943A4
:101450000B0237046168090C39430904090E0B4378
:1014600099B21143002212400E4310430146020478
:10147000300C1043090C0E4A1C3AD16090600123D5
:101480001C327D21C9000C48FFF753FF0546681C3C
:10149000002801D1401EB7E70548FFF78DFE05463D
:1014A000681C002801D1401EAEE7FFF766FFABE7DE
:1014B00084000020B4150008B615000870B5044675
:1014C0002068451D20460C30FFF748FF401C0028CF
:1014D00001D1401E70BD2846FFF766FE2089002816
:1014E00006DD0120034908702046FFF7F9FCF1E70B
:1014F0000020EFE76800002070B505462846FFF79A
:10150000C3FE0446002C01D1401E70BD2046FFF7EB
:10151000D5FF401C002801D1401EF6E70020F4E76B
:10152000F0B585B00546288901900198039003998C
:101530004800FFF79FFC0746002406E061001C48B6
:10154000405A61007852601C04B201988442F5DB75
:101550002889401E04B2002623E02889001B401E73
:1015600080006968085802906000385C00026100E1
:10157000795A0912084380B2009002980068002846
:1015800007D002980168009888477200084988527D
:1015900003E07200064900988852601E04B2701C75
:1015A00006B2002CD9DA3846FFF7FAFA05B0F0BDDA
:1015B000840000203682202F20320000000000002E
:1015C0000000000000000000000000000A0C000005
:1015D00000000000657468616E6F6C5F7369676E10
:1015E000616C00000000000000000000000000002E
:1015F000000000000000000068325F7369676E61E0
:101600006C0000000000000000000000000000006E
:1016100000000000000000000000000074564F436E
:1016200000000000000000000000000000000000BA
:1016300000000000000000000000000000000000AA
:10164000636F325F65710000000000000000000061
:10165000000000000000000000000000000000008A
:1016600000000000626173656C696E653100000006
:10167000000000000000000000000000000000006A
:101680000000000000000000626173656C696E6517
:101690003200000000000000000000000000000018
:1016A0000000000000000000102700000000000003
:1016B0000000000020036961715F696E69740000B9
:1016C000000000000000000000000000000000001A
:1016D000000000000000000050C3000010000020C7
:1016E0000200010020086961715F6D6561737572A8
:1016F0006500000000000000000000000000000085
:10170000000000000000000010270000180000206A
:101710000200020020156961715F6765745F626194
:1017200073656C696E650000000000000000000039
:101730000000000000000000102700000000000072
:1017400000000300201E6961715F7365745F626150
:1017500073656C696E650000000000000000000009
:101760000000000000000000400D030020000020E9
:1017700002000A0020506D6561737572655F7369C0
:10178000676E616C73000000000000000000000044
:101790000000000000000000102700000000000012
:1017A00000000C0020617365745F6162736F6C757B
:1017B00074655F68756D6964697479000000000084
:1017C00000000000000000000900200028000020A8
:1017D00005000000C8170008010000003C000020C0
:1017E00006000000CA170008010000005400002095
:1017F000020000001418000800000020680000002B
:101800000C0A00087C180008680000203006000060
:101810001C0A000800000000010203040102030486
:1018200006070809181600083C160008601600088C
:1018300084160008D0150008F4150008A816000842
:10184000D81600080817000838170008681700089D
:10185000A8160008D816000808170008381700084E
:101860006817000898170008DC170008CC17000854
:0C1870000000000000000000000000006C
:04000005080000D51A
:00000001FF
